:100000000C94891D0C94BA1D0C94BA1D0C94BA1D45
:100010000C94BA1D0C94BA1D0C94BA1D0C94BA1D04
:100020000C94BA1D0C94BA1D0C94BA1D0C94BA1DF4
:100030000C94BA1D0C9438830C94BA1D0C94BA1D00
:100040000C94BA1D0C945AE50C94BA1D0C94BA1D6C
:100050000C94BA1D0C94BA1D0C946D680C9428F481
:100060000C94BA1D0C94B6520C94BA1D0C94BA1D83
:100070000C94BA1D0C94BA1D0C94BA1D0C94BA1DA4
:100080000C94BA1D0C94BA1D0C94BA1D0C94BA1D94
:100090000C94BA1D0C94BA1D0C94BA1D0C94BA1D84
:1000A0000C94BA1D0C94BA1D0C94BA1D0C94BA1D74
:1000B0000C94BA1D0C94BA1D0C94BA1D0C94BA1D64
:1000C0000C94BA1D0C94BA1D0C94BA1D0C94BA1D54
:1000D0000C94BA1D0C94BA1D0C94BA1D0C94BA1D44
:1000E0000C94BA1DD77BE37BEA7BF07BF67BFC7B31
:1000F000027C087C857C0E7C857C857C1B7C11DCED
:1001000014DC03DC07DC0DDC4BDC18DC1CDC22DC43
:1001100026DC2ADC30DC34DC38DC4BDC3EDC42DC48
:1001200046DC5BDF60DF65DF6FDF79DFF2DF83DF17
:100130008BDF93DF9DDFA7DFB1DFC0DFCADFF2DF38
:10014000D4DFDEDFE8DF33E348E35EE364E37FE34D
:100150008FE3ADE3C4E3C6E4E1E3C6E4F7E3C6E45A
:10016000FBE301E453E469E47EE483E49AE4B2E46B
:10017000084AD73B3BCE016E84BCBFFDC12F3D6C0E
:1001800074319ABD56833DDA3D00C77F11BED9E474
:10019000BB4C3E916BAAAABE000000803F05A84C54
:1001A000CDB2D44EB93836A9020C50B99186880820
:1001B0003CA6AAAA2ABE000000803F000C9442DCA4
:1001C0000C9451760C9469710C941A450C945BDF75
:1001D0000C943EDC0C9483E40C94E8DF0C944BF21A
:1001E0000C9474460C94F67B0C94CEF10C940DDCBC
:1001F0000C941CDC0C94F6420C94C0DF0C9438DC9C
:100200000C947EE40C9483750C9448E30C94EA7B84
:100210000C94F6520C94E9390C9433E30C94823E1E
:100220000C9422DC0C940CFD0C9467590C948CCE2D
:100230000C94FD580C947FE30C94E06F0C9418DC44
:100240000C9489CE0C9443720C945D590C947646B0
:100250000C940D530C94FC7B0C9434DC0C94F547FB
:100260000C9465DF0C94027C0C9400750C94C9CD41
:100270000C9402730C9414DC0C94264A0C944C38A5
:100280000C9430DC0C94D8490C94FA770C94B1DFC0
:100290000C94F5370C945DC70C94576E0C94C7CC36
:1002A0000C94B2E40C9446DC0C94F2DF0C94D7531B
:1002B0000C94F7E30C94F07B0C9409CD0C94889F7C
:1002C0000C9460DF0C949AE40C94F2820C94E37B1F
:1002D0000C942ADC0C945C960C9462590C94377242
:1002E0000C941B7C0C9469E40C9401E40C94DEDF08
:1002F0000C94C95A0C949DDF0C9418790C94DF521D
:100300000C943B3E0C9483DF0C94D4DF0C94493C5A
:100310000C94EF370C94C5570C946FDF0C94E337B3
:100320000C944BDC0C94EF770C945EE30C944172CC
:100330000C9411DC0C94E4390C94FC400C94337450
:100340000C9407DC0C94A7DF0C9436830C94216F7B
:100350000C94EC770C94193C0C94D77B0C942C42A5
:100360000C9479DF0C9403DC0C9493DF0C9426DC62
:100370000C943F740C94E9370C948FE30C94C6E40E
:100380000C94DA390C94A1CE0C948ECE0C945E3C75
:100390000C940E7C0C9464E30C94FBE30C94C4E387
:1003A0000C94E1E30C94CADF0C94A3820C940141F9
:1003B0000C94DF390C94F7470C9435740C947371DA
:1003C0000C94DC750C948BDF0C94EACC0C94087CB8
:1003D0000C9453E40C94EB770C94ADE30C94857C73
:1003E0004E414E494E495459494E46CDCCCC3D0A1A
:1003F000D7233C17B7D13877CC2B329595E6241FFD
:10040000B14F0A000020410000C84200401C4620B5
:10041000BCBE4CCA1B0E5AAEC59D74434F4D4D55C4
:100420004E49434154494F4E0044525952554E0093
:100430004552524F525300494E464F004543484F94
:1004400000536C6565702E2E2E004D65736820700C
:100450006F696E742063616E6E6F742062652072C6
:1004600065736F6C7665640A00436C69636B207416
:100470006F20726573756D652E2E2E004E6F206D88
:100480006F76652E005072696E742074696D653ADE
:10049000200050726F7465637465642050696E0A41
:1004A0000046696C616D656E7420757365643A20F1
:1004B0000053746174733A20002C204C6F6E676592
:1004C0007374206A6F623A2000546F74616C2074F8
:1004D000696D653A200053746174733A20002C20D2
:1004E0004661696C65643A20002C2046696E697328
:1004F0006865643A20005072696E74733A20005344
:10050000746174733A20003C043704300429041BDE
:10051000046F66660044454255473A004B494C4CCF
:1005200045442E20004D31313320530020573A00EE
:100530004520436F6F6C696E672E2E2E0045204854
:10054000656174696E672E2E2E0020573A00426551
:100550006420636F6F6C696E672E2E2E0042656497
:100560002068656174696E672E2E2E0053696C6574
:100570006E744352204F66662E00544845524D41DA
:100580004C5F50524F54454354494F4E00415554CF
:100590004F5245504F52545F53445F53544154554A
:1005A0005300454D455247454E43595F50415253C4
:1005B000455200434153455F4C494748545F4252BE
:1005C000494748544E45535300544F47474C455FA5
:1005D0004C494748545300534F4654574152455F86
:1005E000504F574552004255494C445F5045524385
:1005F000454E54004C4556454C494E475F44415486
:1006000041005A5F50524F4245004155544F4C45AE
:1006100056454C005052494E545F4A4F420050528A
:100620004F4752455353004155544F5245504F5236
:10063000545F54454D5000564F4C554D455452490A
:100640004300454550524F4D0053455249414C5F80
:10065000584F4E5F584F4646004649524D574152FB
:10066000455F4E414D453A4D61726C696E20627531
:10067000676669782D312E312E7820284769746895
:1006800075622920534F555243455F434F44455FA0
:1006900055524C3A68747470733A2F2F67697468B6
:1006A00075622E636F6D2F4D61726C696E46697253
:1006B0006D776172652F4D61726C696E2050524F7B
:1006C000544F434F4C5F56455253494F4E3A312E8B
:1006D00030204D414348494E455F545950453A53A7
:1006E000696C656E744352204558545255444552C6
:1006F0005F434F554E543A3120555549443A63654E
:100700006465326132662D343161322D34373438CC
:100710002D396231322D63353563363266333637E3
:1007200066660A007A5F6D696E3A2000795F6D69CE
:100730006E3A2000785F6D696E3A20005265706FE6
:100740007274696E6720656E6473746F7020737461
:10075000617475730A004D31343520533C696E6401
:1007600065783E206F7574206F662072616E6765D4
:100770002028302D31290A002054002052004163E6
:1007800063656C65726174696F6E3A205000205A1F
:1007900000205900580020204D61783A2000205A4E
:1007A00000205900580020204D696E3A20004F6EFD
:1007B00020004F666600536F667420656E64737424
:1007C0006F70733A200020466C6F773A200000016A
:1007D00036372603FFFFFF3B3C3D380EFFFFFF3F50
:1007E0002E303E12FFFFFFFF28FF0C080907FFFF16
:1007F0001A1C18FFFF2A08440AFF4320643A00200D
:10080000693A0020703A00496E76616C696420652F
:10081000787472756465720A0043290A0061626C1B
:10082000656420286D696E2074656D702000436FCB
:100830006C642065787472756465732061726520DC
:10084000004B64200023646566696E65204445465C
:1008500041554C545F004B69200023646566696E06
:10086000652044454641554C545F004B70200023A1
:10087000646566696E652044454641554C545F0089
:10088000504944204175746F74756E652066696EB9
:100890006973686564212050757420746865206CE4
:1008A000617374204B702C204B6920616E64204B67
:1008B0006420636F6E7374616E74732066726F6D03
:1008C0002062656C6F7720696E746F20436F6E666F
:1008D000696775726174696F6E2E680A00504944C9
:1008E000204175746F74756E65206661696C65640E
:1008F000212074696D656F75740A00453120544874
:1009000045524D414C2052554E41574159004245A8
:100910004420544845524D414C2052554E41574178
:100920005900546865726D616C2052756E61776113
:10093000790045312048656174696E672066616998
:100940006C6564004265642068656174696E672047
:100950006661696C65640048656174696E672066EC
:1009600061696C656400504944204175746F747509
:100970006E65206661696C6564212054656D7065E3
:1009800072617475726520746F6F20686967680A98
:1009900000204B643A2000204B693A2000204B7025
:1009A0003A20000A20436C61737369632050494404
:1009B000200A002054753A2000204B753A20002070
:1009C0006D61783A2000206D696E3A200020643A0B
:1009D000200020626961733A20005049442041752B
:1009E000746F74756E65206661696C656421204260
:1009F0006164206578747275646572206E756D62CD
:100A000065720A00504944204175746F74756E65B3
:100A10002073746172740A0020643A0020693A00FD
:100A200020703A004E6F2063617365206C696768BF
:100A3000740A004F66660A0046616465204865696D
:100A40006768742000426564204C6576656C696E49
:100A50006720004661696C656420746F20656E6173
:100A6000626C6520426564204C6576656C696E67D2
:100A70000A004D65736820426564204C6576656C9C
:100A800020646174613A0A004D65736820706F6973
:100A90006E742063616E6E6F742062652072657380
:100AA0006F6C7665640A004D34323120696E636F75
:100AB000727265637420706172616D657465722015
:100AC00075736167650A00617869733A70776D5F65
:100AD0007363616C65207C7374617475735F726598
:100AE00073706F6E73657C0A00416374697665206C
:100AF00045787472756465723A2000496E76616C4F
:100B000069642065787472756465720A004B494C9B
:100B10004C45442E2000202D20496E76616C69647E
:100B2000206578747275646572206E756D62657289
:100B300020210A000000000000000000000000006A
:100B400000000000000000000000000000000000A5
:100B500000000000000001F00000000000000000A4
:100B600000000000000007FC000000E031800000F1
:100B7000300F83F000000FFE000001F8318000000C
:100B8000303FC3F800000FFE0000030C018000009E
:100B90003070430C00001FFF00000200018303F0CF
:100BA0007860030C00001FFF00000200018303F0C7
:100BB0007860030C00001FBF00000300318FC3F8F2
:100BC00078C0030C00001F1F000001F0318C630C83
:100BD00030C003F800001F1F0000007C3198630C38
:100BE00030C003F800001EAF0000000C319FE30C82
:100BF00030C0031800001EAE00000004319FC30C7B
:100C00003060030C00000DB60000060C3198030C98
:100C10003070C30C000001B0000003F8318FC30C2A
:100C2000383FC30C000003B8000000F03183820C91
:100C3000100F0204000007B80000000000000000D0
:100C400000000000000007BC0000000000000000E1
:100C50000000000000000FBE0000000000000000C7
:100C60000000000000000FBE000001080048010461
:100C7000303C004000000FBE0000010800480104A5
:100C8000303C004000001FBF000001980040030CF2
:100C90005020004000001FBF000001F9F3CB810489
:100CA0007021875800003FBF8000016B334A410428
:100CB000703B467000007FBF8000010A124A410469
:100CC0004822446000007FBFC000010B324A41044B
:100CD000482244500000FFBFE0000109F24A41658C
:100CE000302184400000FFBFE00000000000000051
:100CF000000000000001FFBFF0000000010000073D
:100D0000023000000001FFBFF0000000030003E517
:100D1000867800000007FFBFF80000000733860454
:100D200082480000000FFE1FF8000000025B04056F
:100D300082480000000FFE1FF8000000025B04055F
:100D400082480000000FFCE7FC000000024A040794
:100D500032480000001FF3F9FF000000024A066459
:100D600082780000039FCFFE7F380000023201E44A
:100D7000823000001FBF9FFF3FBE00000000000048
:100D8000000000003F3E7FFFCFBF8000000000005A
:100D9000000000003F71FFFFF3DF80000000000053
:100DA000000000007ECFFFFFF8CFC0000000000071
:100DB000000000007E9FFFFFFF2FC000000000002A
:100DC000000000007C7FFFFFFFC7C00000000000A4
:100DD000000000007C0000000007C0C01500006299
:100DE0004B81C3A27FF800000FFFC0A00500007672
:100DF0005A0322327FF8000007FFC0A51786387E0D
:100E00007302023A7FF8000007FFC0A51786387EFC
:100E10007302023A3FF8000007FF80E51509286ACF
:100E200070C2E3AE3FF0000003FF00951509286291
:100E3000584322260FE0000000FE00E2150628625B
:100E40004B81C3A200000000000000000000000071
:100E50000000000000000000000000000000000092
:100E60000000000000000000000000000000000082
:100E70000000000000000000000000000000000072
:100E8000000000007DC000000001C0000000000064
:100E9000000000007DE6C63183A7C01000002010CE
:100EA000000000001136E671C7A4001000002010F9
:100EB000000000001136E659C7AC001E240E2F12A8
:100EC0007387873011E6F6C9E7AC001B2412291C92
:100ED0004206C64811E6F6C9E7AC001B2412291CDD
:100EE0004206C64811E6DECDEFAC001124122F1CDD
:100EF000738444481126CEFDBBAC0013241228167F
:100F00005286C4481136CF85BBA6001E1C0E261281
:100F1000739784301116850710A3C0000C000000E1
:100F200000040000000000000000000018000000A5
:100F3000000400001FFFFFFFFFFFFF600000000034
:100F400001FF400000000000FF8000000000007F63
:100F500083CF00000C303F87FF80000C301F867964
:100F600080000C000F8C30C7838C30E78C30CFC7EB
:100F7000CC31F38C30DCECEC33B98C30D86C6C3386
:100F8000198C30D06C0C33198C30D86C0C33198C14
:100F900030DC6C0E3B198C30CF7C079F198C30C72E
:100FA0007C038F1940000000000002600000000078
:100FB00000061FFFFFFFFFFFF82020506C616E6EE0
:100FC000657242756666657242797465733A20008F
:100FD0002046726565204D656D6F72793A20004339
:100FE0006F6D70696C65643A204A756E20203220FE
:100FF000323031380A00207C20417574686F723AB3
:101000002028416C656B73616E64657220536F625A
:101010006F6C6577736B69290A00323031382D3077
:10102000312D323000204C6173742055706461742E
:1010300065643A20006275676669782D312E312E1D
:10104000780A004D61726C696E0020536F66747788
:101050006172652052657365740A0020576174637C
:1010600068646F672052657365740A002042726F6E
:10107000776E206F75742052657365740A00204581
:10108000787465726E616C2052657365740A0050E5
:101090006F77657255700A0073746172740A004547
:1010A0006E6473746F70732025632025632025633D
:1010B00020256300205A3A0020593A0020583A006F
:1010C000656E6473746F7073206869743A20004DA4
:1010D0006F7665205A00473239205332004E6578CA
:1010E0007420506F696E74002569202F20257500CB
:1010F0004732392053310047323920533200436C94
:1011000069636B20746F20426567696E00486F6D7C
:10111000696E672058595A004732380053746F720D
:10112000652073657474696E6773004C6F61642029
:1011300073657474696E677300426564205A004277
:101140006564205A00466164652048656967687473
:10115000004661646520486569676874004F66668B
:10116000004F6E2000426564204C6576656C696EA8
:1011700067004C6576656C2062656400507265702E
:10118000617265004D343238005072656865617473
:1011900020504C4100436F6F6C646F776E0050724B
:1011A0006568656174204142530044697361626CF3
:1011B00065207374657070657273004D3834005328
:1011C000657420686F6D65206F6666736574730063
:1011D000426564204C6576656C696E6700486F6D8A
:1011E00065205A00473238205A00486F6D652059F3
:1011F00000473238205900486F6D6520580047324B
:10120000382058004175746F20686F6D6500473253
:1012100038004D6F76652061786973004D61696EA5
:10122000004D6F76652058004D6F76652059004D52
:101230006F7665205A004578747275646572004D4A
:101240006F766520302E316D6D004D6F76652031E3
:101250006D6D004D6F76652031306D6D004D6F7690
:1012600065206178697300457874727564657200F1
:101270004D6F7665205A004D6F76652059004D6F91
:1012800076652058005654726176206D696E00565E
:1012900054726176206D696E005654726176206DCD
:1012A000696E00566D696E00566D696E00566D6907
:1012B0006E00566D6178204500566D6178204500BE
:1012C000566D6178204500566D6178205A00566D44
:1012D0006178205A00566D6178205A00566D617809
:1012E000205900566D6178205900566D617820595B
:1012F00000566D6178205800566D61782058005670
:101300006D61782058004D6F74696F6E00416D619A
:1013100078204500416D6178204500416D6178205D
:101320005A00416D6178205A00416D617820590062
:10133000416D6178205900416D6178205800416D00
:101340006178205800412D74726176656C00412DE2
:1013500074726176656C00412D726574726163749C
:1013600000412D7265747261637400416363656C42
:1013700000416363656C004D6F74696F6E00566564
:101380002D6A65726B0056652D6A65726B00566535
:101390002D6A65726B00567A2D6A65726B00567AFB
:1013A0002D6A65726B0056792D6A65726B005679ED
:1013B0002D6A65726B0056792D6A65726B005678DE
:1013C0002D6A65726B0056782D6A65726B005678CF
:1013D0002D6A65726B004D6F74696F6E0045737492
:1013E0006570732F6D6D004573746570732F6D6D2F
:1013F000005A73746570732F6D6D005A7374657045
:10140000732F6D6D005973746570732F6D6D005976
:1014100073746570732F6D6D005873746570732FDE
:101420006D6D005873746570732F6D6D004D6F7422
:10143000696F6E0053746570732F6D6D004A65722D
:101440006B00416363656C65726174696F6E005611
:10145000656C6F6369747900436F6E74726F6C00B2
:1014600046696C2E204469612E0046696C2E20442A
:1014700069612E004F6666004F6E20004520696E40
:10148000206D6D3300436F6E74726F6C002569734D
:101490000025696D20256973002569682025696D1F
:1014A0002025697300256964202569682025696DF8
:1014B00020256973002569792025696420256968DC
:1014C0002025696D2025697300656E7175657565E8
:1014D000696E672022004C696E65204E756D6265ED
:1014E00072206973206E6F74204C617374204C6994
:1014F0006E65204E756D6265722B312C204C6173C8
:1015000074204C696E653A20004B494C4C45442E82
:10151000200053544F505045442E20005072696EA5
:101520007465722073746F707065642064756520D3
:10153000746F206572726F72732E20466978207402
:101540006865206572726F7220616E6420757365C4
:10155000204D39393920746F20726573746172744B
:101560002E202854656D70657261747572652069EE
:10157000732072657365742E20536574206974201E
:1015800061667465722072657374617274696E67E6
:10159000290A004E6F20436865636B73756D207771
:1015A000697468206C696E65206E756D6265722C59
:1015B000204C617374204C696E653A200063686545
:1015C000636B73756D206D69736D617463682C2036
:1015D0004C617374204C696E653A20004D31313096
:1015E0000020496E76616C69642065787472756458
:1015F000657220004578747275646572004D6F766F
:1016000065205A004D6F76652059004D6F76652034
:1016100058005072657061726500496E6974696145
:101620006C697A6520454550524F4D00436F6E748A
:10163000726F6C00526573746F7265206661696CBD
:1016400073616665004C6F61642073657474696EC4
:10165000677300496E697469616C697A65204545F4
:1016600050524F4D0053746F7265207365747469E6
:101670006E67730046696C616D656E74004D6F74C2
:10168000696F6E0054656D70657261747572650086
:101690004D61696E00507265686561742041425306
:1016A00020636F6E66005072656865617420504CEF
:1016B0004120636F6E66005049442D4400504944F8
:1016C0002D44005049442D49005049442D490050B3
:1016D00049442D50005049442D50002008204661B7
:1016E00063740020082046616374002008204D6167
:1016F00078002008204D6178002008204D61780096
:101700002008204D696E002008204D696E002008D9
:10171000204D696E004F6666004F6E200041757463
:101720006F74656D700046616E207370656564202E
:10173000320046616E207370656564203200466138
:101740006E20737065656420320046616E20737090
:1017500065656420310046616E20737065656420A4
:10176000310046616E20737065656420310042650A
:101770006400426564004E6F7A7A6C65004E6F7A41
:101780007A6C6500436F6E74726F6C0053746F7285
:10179000652073657474696E677300426564004206
:1017A000656400426564004E6F7A7A6C65004E6F26
:1017B0007A7A6C65004E6F7A7A6C650046616E20AD
:1017C00073706565640046616E20737065656400C2
:1017D00046616E2073706565640054656D70657256
:1017E00061747572650053746570726174652074FC
:1017F0006F6F20686967683A200024F4D43050C3C2
:101800008E20C2A24017828B7011127A910D816CCA
:10181000D90AA861E108C7586607615143061E4B03
:101820005D05C145A7041A411104093D98037139AA
:1018300031034036DB0265339102D4305402802EEE
:101840001D02632CEE01752AC501B028A0011027E6
:1018500081018F2564012B244B01E0223401AC214E
:101860001F018D200D01801FFC00841EED00971DBF
:10187000DF00B81CD200E61BC600201BBC00641AA7
:10188000B200B219A8000A19A0006A189900D1176D
:10189000910040178B00B516840031167E00B315F9
:1018A00079003A157300C7146F0058146A00EE13DC
:1018B00066008813630025135E00C7125B006C127C
:1018C000570015125400C111510070114F00211121
:1018D0004B00D61049008D104700461044000210FE
:1018E0004200C00F4000800F3E00420F3C00060F38
:1018F0003B00CB0E3800930E37005C0E3500270EF0
:101900003400F30D3200C10D3100900D3000600D38
:101910002E00320D2D00050D2C00D90C2B00AE0C25
:101920002900850C29005C0C2700350C27000E0CC3
:101930002600E80B2400C40B2400A00B23007D0B21
:1019400023005A0B2100390B2100180B2000F80A44
:101950001F00D90A1E00BB0A1E009D0A1D00800A36
:101960001D00630A1C00470A1B002C0A1B00110AF9
:101970001A00F7091A00DD091900C4091900AB099A
:101980001900920917007B091800630917004C0918
:10199000160036091600200916000A091500F50878
:1019A0001500E0081400CC081400B8081400A408BE
:1019B0001400900813007D0812006B0813005808EB
:1019C0001200460812003408110023081100120802
:1019D000110001081100F0071000E0071000D00707
:1019E0001000C0071000B0070F00A10710009107FA
:1019F0000E0083070F0074070F0065070E005707DE
:101A00000E0049070E003B070D002E070E002007B1
:101A10000D0013070D0006070D00F9060C00ED067A
:101A20000D00E0060C00D4060C00C8060C00BC0635
:101A30000C00B0060C00A4060B0099060C008D06E5
:101A40000B0082060B0077060B006C060B0061068C
:101A50000A0057060B004C060A0042060A00380628
:101A60000A002E060A0024060A001A060A001006BA
:101A7000090007060A00FD050900F4050900EB0549
:101A80000900E2050900D9050900D0050900C705CC
:101A90000900BE050900B5050800AD050800A5054B
:101AA00009009C050800940508008C0508008405C1
:101AB00008007C050800740508006C050700650532
:101AC00008005D050700560508004E05070047059C
:101AD00007004005080038050700310507002A0502
:101AE0000700230507001C050600160507000F0563
:101AF00007000805060002050700FB040600F504C0
:101B00000700EE040600E8040600E2040700DB0418
:101B10000600D5040600CF040600C9040600C3046D
:101B20000600BD040600B7040600B1040500AC04BD
:101B30000600A6040600A00405009B040600950408
:101B40000500900406008A04050085040500800451
:101B500006007A04050075040500700405006B0496
:101B6000050066040500610405005C0405005704D7
:101B70000500520405004D04050048040500430417
:101B800005003E0404003A04050035040500300455
:101B900004002C04050027040400230405001E048F
:101BA00004001A04040016040500110404000D04C6
:101BB0000400090405000404040000040400FC03FC
:101BC0000400F8030400F4030400F0030400EC0331
:101BD0000400E8030400E4030400E0030400DC0361
:101BE0000400D8030400D4030400D0030400CC0391
:101BF0000400C8030300C503030024F404D9201B18
:101C0000C40C5C0E9804C4095F0265077101F405F9
:101C1000F900FB04B30048048700C10369005803BE
:101C2000550003034500BE023A008402310053020E
:101C30002A002902250004022000E4011C00C8013A
:101C40001900AF01170098011400840113007101FD
:101C500010006101100051010E0043010D0036011A
:101C60000B002B010B0020010B00150109000C01DA
:101C7000090003010800FB000800F3000800EB0066
:101C80000700E4000600DE000600D8000600D200CF
:101C90000600CC000500C7000500C2000500BD001D
:101CA0000400B9000400B5000400B1000400AD0058
:101CB0000400A9000400A5000300A20003009F0087
:101CC00004009B00030098000300950002009300AD
:101CD0000300900003008D0002008B0003008800C9
:101CE00002008600020084000300810002007F00E1
:101CF00002007D0002007B000200790002007700F4
:101D00000100760002007400020072000100710000
:101D100002006F0002006D0001006C0002006A000A
:101D20000100690002006700010066000100650013
:101D30000100640002006200010061000100600017
:101D400001005F0002005D0001005C0001005B001B
:101D500001005A000100590001005800010057001D
:101D6000010056000100550001005400010053001D
:101D7000000053000100520001005100010050001A
:101D800001004F0001004E0000004E0001004D0018
:101D900001004C0001004B0000004B0001004A0014
:101DA0000100490001004800000048000100470010
:101DB000010046000000460001004500000045000B
:101DC0000100440001004300000043000100420004
:101DD00000004200010041000000410001004000FD
:101DE00001003F0000003F0001003E0000003E00F7
:101DF00001003D0000003D0001003C0000003C00EF
:101E000000003C0001003B0000003B0001003A00E4
:101E100000003A00010039000000390001003800DC
:101E200000003800000038000100370000003700D3
:101E300001003600000036000000360001003500C9
:101E400000003500000035000100340000003400BF
:101E500000003400010033000000330000003300B4
:101E600001003200000032000000320001003100A9
:101E7000000031000000310001003000000030009F
:101E80000000300001002F0000002F0000002F0094
:101E900000002F0001002E0000002E0000002E0088
:101EA00001002D0000002D0000002D0000002D007D
:101EB00001002C0000002C0000002C0000002C0071
:101EC00001002B0000002B0000002B0000002B0065
:101ED00001002A0000002A0000002A0000002A0059
:101EE000010029000000290000002900000029004D
:101EF0000000290001002800000028000000280040
:101F00000000280000002800010027000000270032
:101F10000000270000002700000027000100260025
:101F20000000260000002600000026000000260019
:101F3000010025000000250000002500000025000C
:101F400000002500000025000100240000002400FE
:101F500000002400000024000000240001002300F1
:101F600000002300000023000000230000002300E5
:101F700000002300000023000100220000002200D6
:101F800000002200000022000000220000002200C9
:101F900001002100000021000000210000002100BC
:101FA00000002100000021000000210001002000AD
:101FB00000002000000020000000200000002000A1
:101FC00000002000000020000000200001001F0091
:101FD00000001F0000001F0000001F0000001F0085
:101FE00000001F0000001F0001001E0000001E0076
:101FF00000001E0000001E00000070012C01900176
:102000002701B0012201C0011D01F00118011002D9
:10201000130130020E016002090190020401C002A6
:10202000FF000003FA004003F5008003F000D00336
:10203000EB002004E6007004E100E004DC00400551
:10204000D700C005D2004006CD00D006C8008007EA
:10205000C3003008BE00F008B900C009B400B00ADF
:10206000AF00B00BAA00D00CA500000EA000500FCE
:102070009B00C01096005012910000148C00C015F7
:102080008700B0178200B0197D00D01B7800001EB9
:10209000730040206E0090226900F0246400402705
:1020A0005F0090295A00E02B5500102E5000203080
:1020B0004B0010324600E033410090353C001037B1
:1020C000370070383200A0392D00B03A2800A03B0C
:1020D0002300603C1E00103D1900903D1400103E8E
:1020E0000F00703E0A00C03E0500003F0000403F68
:1020F000FBFF803FF6FFC03FF1FF45340045330052
:102100004532004531004530005A320059320058FE
:1021100032005A00590058006265640A002C20738E
:10212000797374656D2073746F70706564212048D5
:1021300065617465725F49443A20004265642068B5
:10214000656174696E67206661696C6564004865E5
:102150006174696E67206661696C65640045312051
:1021600048656174696E67206661696C65640048E2
:10217000656174696E67206661696C656400100052
:10218000C90210012C014001220170011801B001A7
:102190000E01F00104015002FA00B002F000300319
:1021A000E600D003DC009004D2007005C800A00651
:1021B000BE000008B400B009AA00D00BA000600E59
:1021C000960060118C000015820020197800C01D57
:1021D0006E00A0226400B0275A00902C50000031FD
:1021E0004600E0343C0010383200903A2800603C51
:1021F0001E00A03D1400803E0A00203F0000453133
:1022000020544845524D414C2052554E415741595A
:102210000042454420544845524D414C2052554EB1
:102220004157415900546865726D616C2052756E5A
:1022300061776179004531204572723A204D4158ED
:1022400054454D50004572723A204D415854454D09
:102250005020424544004D415854454D5020747221
:1022600069676765726564004531204572723A207E
:102270004D494E54454D50004572723A204D494EDD
:1022800054454D5020424544004D494E54454D5013
:102290002074726967676572656400202F002042B0
:1022A000403A0020403A0025753A25303275002525
:1022B0003032753A2530327500257564202530326C
:1022C000753A25303275001621142112210F210C88
:1022D000210921062103210021FD20FA20747275B5
:1022E000650066616C7365002074656D7065726170
:1022F00074757265207072657761726E2074726990
:102300006767657265643A20002070726577617254
:102310006E20666C616720636C65617265640A009B
:1023200000457874727564656420746F74616C3AEA
:102330002000256C642E25696D00004C6F6E67656A
:102340007374206A6F622074696D653A20000054CE
:102350006F74616C207072696E742074696D653A77
:102360002000436F6D706C657465643A2000507294
:10237000696E7420436F756E743A20004D61782049
:1023800054656D703A20313030004D696E205465CF
:102390006D703A203500544265643A41544320310F
:1023A000303447542D32004D61782054656D703AB9
:1023B00020323830004D696E2054656D703A2035FA
:1023C0000054303A204550434F53203130304B00B9
:1023D0005053553A2047656E657269630050726FBD
:1023E000746F636F6C3A20312E3000426175643A2D
:1023F00020323530303030004D4B532047454E2091
:102400003E2076312E33004D657368204C6576652D
:102410006C696E67004578747275646572733A20F2
:102420003100687474703A2F2F6D61726C696E663A
:10243000772E6F72670053696C656E744352003279
:102440003031382D30312D32300062756766697851
:102450002D312E312E78004D61726C696E005072F4
:10246000696E746572205374617473005468657288
:102470006D6973746F727300426F61726420496E8C
:10248000666F005072696E74657220496E666F00E7
:102490004D61696E00203D2030780020286D6D2947
:1024A0000054302045005A005900580048796272A3
:1024B0006964205468726573686F6C643A0A0054EA
:1024C000302045005A0059005800537465707065FB
:1024D00072206472697665722063757272656E74BB
:1024E0003A0A0020440020490020204D3330342097
:1024F000500020440020490020204D33303120502E
:10250000005049442073657474696E67733A0A0019
:1025100020460020420020480020204D3134352044
:1025200053004D6174657269616C206865617475F2
:102530007020706172616D65746572733A0A002073
:102540005A002059002020473239205333205800A8
:10255000205A0020204D3432302053004D657368DE
:1025600020426564204C6576656C696E673A0A00A6
:10257000205A0020590020204D3230362058004883
:102580006F6D65206F66667365743A0A00204500BA
:10259000205A0020590020580020420020540020DA
:1025A000204D323035205300416476616E6365649E
:1025B0003A20533C6D696E5F66656564726174654F
:1025C0003E20543C6D696E5F74726176656C5F6627
:1025D000656564726174653E20423C6D696E5F732F
:1025E00065676D656E745F74696D655F75733E20B8
:1025F000583C6D61785F78795F6A65726B3E205AEE
:102600003C6D61785F7A5F6A65726B3E20453C6D18
:1026100061785F655F6A65726B3E0A002054002036
:10262000520020204D323034205000416363656CED
:1026300065726174696F6E2028756E6974732F738B
:1026400032293A20503C7072696E745F6163636531
:102650006C3E20523C726574726163745F616363A7
:10266000656C3E20543C74726176656C5F61636397
:10267000656C3E0A00204500205A002059002020A9
:102680004D3230312058004D6178696D756D2041B3
:102690006363656C65726174696F6E2028756E691D
:1026A00074732F7332293A0A00204500205A002003
:1026B000590020204D3230332058004D6178696D2B
:1026C000756D206665656472617465732028756E2A
:1026D0006974732F73293A0A00204500205A00209C
:1026E000590020204D3932205800537465707320F2
:1026F00070657220756E69743A0A0020204D323080
:10270000302044300A0020204D3230302044002058
:1027100044697361626C65640A0046696C616D6549
:102720006E742073657474696E67733A0020204D6F
:102730003134392043203B20556E69747320696E13
:102740002043656C736975730A002020473231207D
:102750002020203B000200000000000000000000DC
:1027600000000000A043000096430000C843473229
:102770002F47332062616420706172616D657465FA
:1027800072730A00206E6F7420656E7465726564E2
:102790002E0A00206F6620004D424C20473239201F
:1027A000706F696E74200059206F7574206F6620F9
:1027B00072616E67652028312D33292E0A0058205A
:1027C0006F7574206F662072616E67652028312DE9
:1027D00033292E0A004D6573682070726F62696E2E
:1027E0006720646F6E652E0A005374617274206DE9
:1027F0006573682070726F62696E672077697468AC
:102800002022473239205331222066697273742E98
:102810000A004732380A4732392053320053746174
:1028200074653A20004D65736820626564206C65AC
:1028300076656C696E6720686173206E6F206461D5
:1028400074612E0A0053206F7574206F66207261C8
:102850006E67652028302D35292E0A006F6B000029
:10286000060900FE0701920321207FFF07FF07FFF3
:10287000000000060000010707060200808080803B
:10288000800080030202060105A0A00507070600DC
:10289000005050F850F85050050707060000207807
:1028A000A07028F020050707060000C0C8102040CF
:1028B00098180507070600006090A040A8906802DD
:1028C0000303060104C040800307070601002040FF
:1028D00080808040200307070601008040202020E0
:1028E000408005050506000120A870A82005050503
:1028F0000600012020F820200203030602FFC0404A
:1029000080050101060003F8020202060200C0C0B1
:102910000505050600010810204080050707060090
:10292000007088888888887003070706010040C007
:1029300040404040E00507070600007088087080AE
:1029400080F8050707060000F81020100808F005B9
:10295000070706000010305090F810100507070612
:102960000000F880F008088870050707060000706E
:102970008080F0888870050707060000F80810209E
:10298000202020050707060000708888708888705E
:10299000050707060000708888780808700205059A
:1029A000060200C0C000C0C00206060602FFC0C08A
:1029B00000C040800407070600001020408040202F
:1029C00010050303060002F800F8040707060100DB
:1029D000804020102040800507070600007088080E
:1029E0001020002005070706000070880868A8A8C6
:1029F00070050707060000708888F8888888050732
:102A000007060000F08888F08888F00507070600B0
:102A10000070888080808870050707060000F088B5
:102A200088888888F0050707060000F88080F08015
:102A300080F8050707060000F88080F08080800598
:102A40000707060000708880B888887005070706A9
:102A50000000888888F888888801070706020080B7
:102A600080808080808005070706000038101010E5
:102A70001090600507070600008890A0C0A090880D
:102A8000050707060000808080808080F805070722
:102A900006000088D8A888888888050707060000EF
:102AA0008888C8A898888805070706000070888865
:102AB00088888870050707060000F08888F0808005
:102AC0008005070706000070888888A890680507B9
:102AD00007060000F08888F0A09088050707060028
:102AE00000788080700808F0050707060000F820CD
:102AF0002020202020050707060000888888888875
:102B00008870050707060000888888888850200597
:102B100007070600008888888888A85005070706E8
:102B20000000888850205088880507070600008824
:102B3000888850202020050707060000F80810208C
:102B40004080F8030707060100E08080808080E075
:102B5000050505060001804020100803070706014F
:102B600000E02020202020E0050303060004205080
:102B700088050101060000F80202020602058040F5
:102B80000505050600007008788878050707060027
:102B9000008080B0C88888F00505050600007080B8
:102BA00080887005070706000008086898888878FC
:102BB0000505050600007088F88070050707060007
:102BC000003048E0404040400506060600FF70889F
:102BD000887808700507070600008080B0C88888DC
:102BE000880107070602008000808080808003083B
:102BF000080601FF200020202020A040040707062F
:102C00000000808090A0C0A090030707060100C0CC
:102C10004040404040E0050505060000D0A8A8A8B7
:102C2000A8050505060000B0C888888805050506C2
:102C3000000070888888700506060600FFF0888806
:102C4000F080800506060600FF7888887808080569
:102C50000505060000B0C880808005050506000057
:102C600070807008F00407070600004040E0404014
:102C70004030050505060000888888986805050528
:102C80000600008888885020050505060000888811
:102C9000A8A85005050506000088502050880506A4
:102CA000060600FF8888887808700505050600007C
:102CB000F8102040F803070706010020404080403C
:102CC000402001070706020080808080808080030A
:102CD00007070601008040402040408005020206B0
:102CE000000268900000000600000A4D65617375DF
:102CF00072656420706F696E74733A0A005A206FAF
:102D000066667365743A20004E756D20582C593AEA
:102D100020332C330A00FFFDFCFAF8F6F4F2F0EE53
:102D2000ECEAE9E7E5E3E1E0DEDCDAD9D7D5D4D2B5
:102D3000D0CFCDCBCAC8C7C5C3C2C0BFBDBCBAB94E
:102D4000B7B6B4B3B2B0AFADACAAA9A8A6A5A4A2B9
:102D5000A1A09E9D9C9A99989795949392908F8EFE
:102D60008D8B8A8988878684838281807F7E7D7B24
:102D70007A797877767574737271706F6E6D6C6B2B
:102D80006A696867666564636261605F5E5D5C5B1B
:102D90005A5958585756555453525150504F4E4DFA
:102DA0004C4B4A4A494847464645444342424140C3
:102DB0003F3E3E3D3C3B3B3A39383837363535347B
:102DC0003332323130302F2E2E2D2C2B2B2A292925
:102DD00028272726252524232322212120201F1EC2
:102DE0001E1D1C1C1B1B1A19191818171616151551
:102DF00014131312121111100F0F0E0E0D0D0C0CD7
:102E00000B0A0A0909080807070606050504040352
:102E100003020201000000000001000000010000A8
:102E20008000555555000000400033333300AAAAF6
:102E30002A004992240000002000C7711C009999C3
:102E40001900D1451700555515003BB11300244911
:102E5000120011111100000010000F0F0F00E338D5
:102E60000E0043790D00CCCC0C00C3300C00E8A25E
:102E70000B0064210B00AAAA0A00703D0A009DD82D
:102E80000900427B090092240900DCD308008888ED
:102E900008001042080000000800F0C10700878702
:102EA000070075500700711C07003EEB0600A1BC2F
:102EB00006006990060066660600703E060061180E
:102EC000060017F4050074D105005BB00500B29050
:102ED0000500627205005555050078390500B81ED9
:102EE0000500050505004EEC040087D40400A1BDD3
:102EF000040090A7040049920400C17D0400EE691B
:102F00000400C7560400444404005C320400082155
:102F1000040041100400000004003FF00300F8E04A
:102F2000030026D20300C3C30300CCB503003AA8B4
:102F300003000A9B0300388E0300C08103009F75C5
:102F40000300D0690300505E03001D5303003448A2
:102F50000300913D03003333030016290300381F9B
:102F6000030097150300300C0300030303000BFA62
:102F7000020049F10200BAE802005CE002002DD82C
:102F800002002DD0020059C80200B0C0020031B9C1
:102F90000200DAB10200AAAA0200A0A30200BC9CAF
:102FA0000200FA9502005C8F0200DF880200828234
:102FB0000200457C02002776020027700200436A67
:102FC00002007C640200D05E02003F590200C85338
:102FD0000200205A3A0020593A0020436F756E745F
:102FE00020583A0020453A00205A3A0020593A0029
:102FF000583A003A004361703A002F2F20005741A1
:10300000524E494E4721204C6F77205A204A657214
:103010006B206D6179206C65616420746F20756E22
:1030200077616E746564207061757365732E0A0034
:103030004F666673657473206170706C69656400B7
:103040004572723A20546F6F206661722100546F8E
:103050006F206661722066726F6D207265666572A0
:10306000656E636520706F696E740A004545505245
:103070004F4D204F4B0A004472697665722072658D
:10308000676973746572733A006F7409006F7470C6
:103090007709007332676109007332676209006F54
:1030A0006C6109006F6C62090073747374090066C7
:1030B00073616374697665090073675F7265737520
:1030C0006C7409007374616C6C67756172640900DB
:1030D000445256535441545553005374616C6C67B9
:1030E000756172642074687273002D7374617274F8
:1030F0000900687973746572657369730A2D656E6A
:10310000640900626C616E6B2074696D65006F66A6
:10311000662074696D6509004F542070726577618F
:10312000726E206861730A6265656E2074726967E9
:103130006765726564004F54207072657761726EC6
:10314000005B6D6D2F735D090070776D0A74687296
:103150006573686F6C640900747374657009006D41
:1031600073746570730900737465616C7468436887
:103170006F70007673656E7365090050574D20734C
:1031800063616C650043532061637475616C090071
:10319000486F6C642063757272656E740052756E50
:1031A0002063757272656E74004D415820637572AC
:1031B00072656E7400524D532063757272656E7441
:1031C000005365742063757272656E7400456E619C
:1031D000626C6564090009007C2000207C3062007C
:1031E0003A002063757272656E742064656372655F
:1031F0006173656420746F20006D41290A002064AA
:103200007269766572206F76657274656D7065722D
:103210006174757265207761726E696E672120280E
:10322000003A2000447269766572206572726F728E
:103230000073686F727420746F2067726F756E64AC
:103240002028636F696C2042290A0073686F7274CA
:1032500020746F2067726F756E642028636F696CCD
:103260002041290A006F76657274656D7065726120
:10327000747572650A0020647269766572206572E1
:10328000726F722064657465637465643A0A002025
:103290006472697665722063757272656E743A2025
:1032A0000020737465616C746843686F70206D6191
:1032B000782073706565643A20000000000000000B
:1032C00000000000000000004842000048420000EA
:1032D0008040000000005761726E696E673A2048B6
:1032E0006F6D696E672042756D70204469766973F1
:1032F0006F72203C20310A000202040000A040004E
:1033000000A040000000400000A0430000964300E1
:1033100000C843FFFFFF4572726F722077726974B5
:10332000696E6720746F20454550524F4D210A0049
:10333000454550524F4D206461746173697A652030
:103340006572726F722E0A0020746F6F206C6F6E40
:103350006720657874727573696F6E207072657618
:10336000656E7465640A0020636F6C642065787410
:10337000727573696F6E2070726576656E746564C0
:103380000A0000060900FE00000000000109000814
:10339000FE000005080806000040F0C888889878FC
:1033A00010050808060000C0F88888888888F80595
:1033B00005050600012030F8302005080806000049
:1033C0002070F820202020E00509090600FF207069
:1033D000A8A8B8888870200509090600FFE080C009
:1033E000B0A8283028280509090600FFF8A8888811
:1033F000888888A8F8050A0A0600FE205050505018
:1034000088A8A8887003030306000340A04020207A
:1034100020202020005A00590020202020005800A1
:103420000920000000000000000000000000003F34
:10343000FFF0000000000000000000000000380065
:103440007000000000000000000000000030FC30B0
:1034500000000000000000000000000020FC100040
:1034600000000000000000000000002078100000B4
:1034700000000000000000000000203010000000EC
:103480000000000000000000002C00D03FC0000041
:1034900000000000002082002E31D07FE0000000FC
:1034A000000000001041002F7BD07FE000000000F2
:1034B0000000001041002F7BD07FE00000000000E2
:1034C00000002082002E31D03FC00000000000002C
:1034D000004104002C00D03FC000000000000000AC
:1034E0008208002030107FE0000000000000008211
:1034F00008002078107FE000000000000000410478
:103500000020FC107FE0000000000000002082008E
:1035100030FC301F80000000000000000000003878
:1035200000700F0000000000000000FFFFC03FFF20
:10353000F0060000000000000000FFFFC0000000D7
:103540000000000000000000000000003FFFF0004D
:1035500000000000000000000000003800700000C3
:103560000000000000000000000031863000000074
:103570000000000000000000002387100000000091
:1035800000000000000000002787900000000000FD
:10359000000000000000002F87D0000000000000A5
:1035A0000000000000002F03D03FC000000000001A
:1035B00000002082002030107FE0000000000000AA
:1035C000001041002078107FE000000000000000A3
:1035D0001041002078107FE0000000000000002073
:1035E00082002030103FC0000000000000004104B5
:1035F000002F03D03FC00000000000000082080040
:103600002F87D07FE0000000000000008208002724
:1036100087907FE000000000000000410400238745
:10362000107FE000000000000000208200318630A2
:103630001F80000000000000000000003800700F34
:103640000000000000000000FFFFC03FFFF0060088
:1036500000000000000000FFFFC0000000426162A7
:103660007973746570205A00466C6F7700466C6FF2
:10367000770046616E207370656564203200466194
:103680006E20737065656420320046616E20737031
:1036900065656420320046616E2073706565642044
:1036A000310046616E2073706565642031004661AB
:1036B0006E20737065656420310042656400426568
:1036C00064004E6F7A7A6C65004E6F7A7A6C650092
:1036D0004661646520486569676874004661646591
:1036E0002048656967687400426564205A00426535
:1036F00064205A005370656564005370656564000A
:103700005370656564004D61696E0050726568654F
:10371000617420504C4120456E64005072656865AC
:10372000617420504C4120426564005072656865A8
:10373000617420504C410050726570617265005098
:103740007265686561742041425320456E64005083
:10375000726568656174204142532042656400507F
:1037600072656865617420414253005072657061F2
:103770007265004C6576656C696E6720446F6E6596
:103780002100486F6D6520257325732573206669B8
:10379000727374002066697273740A005A005900CB
:1037A0005800486F6D6520006563686F3A0000003F
:1037B00020002300260029002C002F0032000001E9
:1037C0000000030106010901000022002500280075
:1037D0002B002E0031003400020100000501080119
:1037E0000B01050505050705080808080202020285
:1037F0000A0A08080404040401010101010101018D
:103800000303030303030303040707070C0C0C0C57
:103810000C0C0C0C02020202060606060606060640
:103820000B0B0B0B0B0B0B0B0102102020080810CD
:103830002040102040800201020108040201010220
:1038400004081020408080402010080402018004F9
:103850000201804020100804020108040201010254
:1038600004081020408001020408102040802053EA
:10387000697A653A2000496E6465783A2000B80B91
:103880000000B80B000064000000102700000000DA
:10389000FA430000FA430000A0400000C8410000C5
:1038A000A0420000A0420000C8430000BE42202009
:1038B0004D393036200020204D39313320000000B2
:1038C0002100240027002A002D00300033000101D0
:1038D0000000040107010A0100000A0B02090C0D97
:1038E0000E080703040100000000000000000000B3
:1038F00000000000000000000000000000000000C8
:103900000000000012111000000000000000000084
:103910000000000000000000000000000000556EE4
:103920006B6E6F776E20636F6D6D616E643A2022EF
:10393000004572726F723A00747275650066616C50
:10394000736500747275650066616C7365007472EE
:1039500075650066616C736500313D2E313800304D
:103960003D2E333235002F3331002F3331002F33CA
:103970003100747275650066616C73650062757301
:10398000793A2070617573656420666F7220696E84
:103990007075740A00627573793A20706175736589
:1039A0006420666F7220757365720A0062757379A0
:1039B0003A2070726F63657373696E670A004B49D2
:1039C0004C4C45442E20004B494C4C206361757390
:1039D0006564206279204B494C4C20627574746F89
:1039E0006E2F70696E0A004B494C4C45442E2000E6
:1039F0004B494C4C20636175736564206279207477
:103A00006F6F206D75636820696E61637469766598
:103A10002074696D65202D2063757272656E742047
:103A2000636F6D6D616E643A2000506C6561736503
:103A3000207265736574005052494E5445522048B7
:103A4000414C544544005072696E7465722068613F
:103A50006C7465642E206B696C6C28292063616C22
:103A60006C6564210A00526573656E643A20006FCC
:103A70006B0020746F6F206C6F6E672065787472B6
:103A80007573696F6E2070726576656E7465640A11
:103A90000020636F6C6420657874727573696F6E53
:103AA0002070726576656E7465640A0053696C6592
:103AB0006E7443522052656164792E005072696EB3
:103AC00074696E672E2E2E005072696E74207061BC
:103AD000757365640041626F7574205072696E740D
:103AE000657200436F6E74726F6C00507265706126
:103AF00072650054756E6500496E666F207363725F
:103B000065656E004261627973746570205A0000C9
:103B10000CFD11241FBECFEFD1E2DEBFCDBF00E010
:103B20000CBF13E0A0E0B2E0EAE8F5E102E00BBF71
:103B300002C007900D92A234B107D9F723E1A2E4A5
:103B4000B3E001C01D92AD31B207E1F71DE1C9E854
:103B5000DDE100E006C021970109802FFE010F94EE
:103B60004407C838D10780E00807A9F70E9472F41B
:103B70000D94C30A0C9400002F923F924F925F92D3
:103B80006F927F928F929F92AF92BF92CF92DF926D
:103B9000EF92FF920F931F93CF93DF93CDB7DEB7D2
:103BA000CB55D1090FB6F894DEBF0FBECDBF91E063
:103BB00090931C128091B2038D3409F4F1C18435C5
:103BC00011F40C941432873411F00C945632209175
:103BD000B0033091B1032B31310509F47DC06CF491
:103BE0002430310534F4223031057CF537FF26C00E
:103BF000D3C12430310591F1CFC12A32310509F406
:103C0000A0C064F42C31310509F496C02D31310582
:103C100009F0C2C10E94F8930C9458322B3531053B
:103C200009F41EC12C35310509F41EC12A353105B0
:103C300009F0B2C1109246030C94583280912502CB
:103C400081110C945D320C94583281E022303105A0
:103C500009F080E00E94868A0C94583280E50E9428
:103C6000CC4E882329F00E940E4E6B017C0103C0CC
:103C7000C12CD12C760183E50E94CC4E882361F0C3
:103C80000E94524E20E030E04AE754E40F94F302E1
:103C90000F94D4086B017C010E9408A18091530904
:103CA000811105C060E081E494E00E94209C0E94A4
:103CB00035E0C60ED71EE81EF91E0E9435E0DC0175
:103CC000CB018C199D09AE09BF09B7FD02C00C9448
:103CD00058320E94DCE9F1CF0E9417D481110C9474
:103CE000583280E090E0A0E2B1E489839A83AB830C
:103CF000BC8380E090E0A1E9B3E48D839E83AF8331
:103D0000B88780E090E0A0EAB1E489879A87AB8722
:103D1000BC8780E50E94CC4E882319F00E941E4E7D
:103D200001C060E06E8BBE016F5F7F4FCE01469693
:103D30000E9432A60C94583280E00E9415930C9495
:103D4000583280912502882311F40C94583289E46A
:103D50000E94CC4EF82E882321F00E941E4E062F82
:103D600001C000E08AE40E94CC4EE82E882331F0A6
:103D70000E941E4E162FF11004C00AC010E0FF2052
:103D8000B1F0033010F40C947A37EAE4F4E003C0A5
:103D90001330D8F70CC084918F010F5F1F4F882319
:103DA00011F40C9458320E94AE4FF801F4CF0E94E7
:103DB000994FFF2091F024E00202F0011124EA5112
:103DC000F44F80819181A281B3818093A708909361
:103DD000A808A093A908B093AA08EE2091F034E0B7
:103DE0001302F0011124E652F44F80819181A281E7
:103DF000B3818093AB089093AC08A093AD08B093C7
:103E0000AE0880E50E94CC4E882319F00E94424EF5
:103E100003C080E50E94854E86E40E94CC4E882334
:103E2000D9F00E94524E6B017C0120E030E0A901E4
:103E30000F94C109181684F420E030E040E752E402
:103E4000C701B6010F945B0860935202709353024E
:103E500080935402909355020E94A2ED0C94583224
:103E6000909346030C945832B6E52B2EB2E03B2ECD
:103E70001BE9C12E18E0D12EE12CF12C00E010E05E
:103E8000D1018D911D010E94CC4E882309F44EC0B2
:103E90000E94524E2B013C01133059F0F701ED5BAB
:103EA000FA4F20813181428153810F9460072B01A9
:103EB0003C01F701E458FC4F20813181428153815C
:103EC000C301B2010F9460074B015C012DEB37E396
:103ED00046E855EB0F94C10987FD0AC02DEB37E387
:103EE00046E855E3C501B4010F948D021816F4F4A9
:103EF000133051F4409288035092890360928A03F0
:103F000070928B0301E012C0A5019401F60160815B
:103F10007181828193810F946107D6016D937D93A6
:103F20008D939C931397812F0E9410961F5FB4E08E
:103F3000CB0ED11CE4E0EE0EF11C143009F0A0CF42
:103F4000002331F12091B2053091B3054091B405C1
:103F50005091B505609188037091890380918A031F
:103F600090918B030F94F3020F94CE096093D60BBC
:103F70007093D70B8093D80B9093D90B1092C60BEC
:103F80001092C70B1092C80B1092C90B0E94FFC66B
:103F90000E941CAB0C9458320E943BDD0C945832AA
:103FA0008091B0039091B1038C38910509F4C1C49C
:103FB0000CF0CFC08836910509F4B4C30CF07EC074
:103FC0008C34910509F4A4C2BCF58231910509F441
:103FD00008C5DCF497FF02C00C94113282309105C1
:103FE0000CF49DC1419711F00C94113260E08CE704
:103FF00094E00E94209C5F988A98809108018170CB
:104000008093060112980C9458328A32910509F473
:104010002EC22CF44F9709F4FDC10C94113289344F
:10402000910509F461C28B34910511F00C941132A1
:104030000E9403E70C9458328235910509F4C8C4F4
:1040400024F58E34910509F46BC20CF465C28135F8
:10405000910511F00C9411320E943B690E9418A145
:1040600010923709109236091092390910923809C6
:1040700068EE73E080E090E00E940F9B60E08CE6C9
:1040800095E00E94209C0C9458328435910509F4E7
:10409000A8C40CF4A1C48535910509F4D7C48C35A6
:1040A000910511F00C94113236E5C32E32E0D32E77
:1040B00046EAE42E45E0F42E10E0E3C48137910592
:1040C00009F4EBC324F58C36910509F4DEC364F4DE
:1040D0008A36910509F460C40CF062C40E94B68966
:1040E00010921C120C94B5378E36910509F449C311
:1040F0000CF403C48F36910509F456C3803791053B
:1041000011F00C9411328CE195E00E947BE9863726
:10411000910509F4AFC564F48337910509F437C5F7
:104120000CF42FC58537910509F48FC50C94113215
:104130008837910509F408C60CF4A0C589379105A4
:1041400009F409C68A37910511F40C9418310C94BE
:1041500011328F32F1E09F0711F40C94D42A0CF045
:1041600066C08E3C910509F43AC774F5883C910508
:1041700009F471C674F48B39910509F4BAC38E3B06
:10418000910509F4F4C38139910511F00C941132B1
:10419000E8C58B3C910509F4A6C64CF4893C910511
:1041A00011F00C9411320E9461AA0C9458328C3C8C
:1041B000910509F49CC68D3C910511F00C941132C7
:1041C0000E94BEA90C945832823E910511F40C94C1
:1041D000742994F48C3D910511F40C94F4288D3DD0
:1041E000910511F40C940329833D910511F00C9471
:1041F0001132E8EAF7E319C78C3231E0930711F482
:104200000C94B1293CF48232914011F40C94A3290E
:104210000C9411328D32A1E09A0711F40C94DB2931
:104220008E32914011F40C947E2A0C941132853F09
:10423000E1E09E0711F40C940331ACF58A3921E0DA
:10424000920709F426C39CF4833641E0940711F4E5
:104250000C94BC2E803951E0950711F40C94D52EA6
:104260008033914011F00C9411320C943F2E853A1A
:10427000B1E09B0711F40C9423303CF4843A914054
:1042800011F40C94D82E0C9411328C3A21E0920740
:1042900009F4C7C6843F914011F00C9411320E947A
:1042A000DAB10C9458328B3843E0940711F40C9433
:1042B0005832B4F4873FA1E09A0711F40C94093105
:1042C00014F40C940631883FE1E09E0711F40C943D
:1042D00015318A38934011F40C9434310C94113216
:1042E000803923E0920711F40C9499314CF48F3803
:1042F000934011F00C9411320E9403A90C9458328F
:10430000813953E0950711F40C940E32873E9340A7
:1043100011F00C9411320E940BA80C945832A0900A
:10432000AE03B090AF0380E50E94CC4E882359F0D5
:104330000E940E4E6B017C0111E0672B682B692BEC
:1043400031F410E004C010E0C12CD12C760183E5DB
:104350000E94CC4E882311F40C9462320E94524E7B
:1043600020E030E04AE754E40F94F3020F94D408BD
:104370006B017C0111110BC0672B682B692B39F481
:10438000A114B10421F0F5018081811102C010E077
:1043900001C011E00E9408A1112341F08091100991
:1043A000811109C0C5010E94629B05C060E089E6D9
:1043B00094E00E94209C83E080931C1281E0809313
:1043C0004308C114D104E104F104E9F00E9435E08E
:1043D000C60ED71EE81EF91E0E9435E0DC01CB0197
:1043E0008C199D09AE09BF09B7FD06C00E9440F3B4
:1043F000109243080C945832809143088823B1F3FB
:104400000E94DCE9E9CF80914308882379F30E9478
:10441000DCE9F9CF0E9451F36E8B7F8B888F998FE7
:10442000BE016F5F7F4FCE0146960E94D94E8091AC
:104430001009811104C0CE0101960E94629BE8EA36
:10444000F7E384918F010F5F1F4F882321F00E94B3
:10445000AE4FF801F6CFBE016F5F7F4F85E894E065
:104460000E94DBE68AE00E94AE4F0C94583283E54E
:104470000E94CC4E882311F40C9458320E942E4E88
:10448000E82E80E50E94CC4E882339F00E942E4E03
:10449000182F87FF03C00C9458321DE0EEECF7E0B4
:1044A0008DE28E0F9491191729F031968E13FACF61
:1044B0000C946732E1E3F9E384918F010F5F1F4FA2
:1044C000882321F00E94AE4FF801F6CFE2E9F4E034
:1044D00084918F010F5F1F4F882311F40C94583281
:1044E0000E94AE4FF801F4CF80E50E94854E8823EC
:1044F00011F40C9458320E942E4E853620F480938D
:10450000C2080C94583284E68093C2080C94583246
:104510000E9485F30C9458320E9461E70C94583243
:1045200083E50E94CC4E811103C0EFEFF4E009C097
:104530000E941E4E6E347105C1F70E94D2E70C94A2
:10454000583284918F010F5F1F4F882321F00E9402
:10455000AE4FF801F6CFE6EFF4E084918F010F5FE4
:104560001F4F882321F00E94AE4FF801F6CF6091D3
:104570005B0370915C0380E090E04AE00E947B5115
:10458000E9EEF4E084918F010F5F1F4F882321F043
:104590000E94AE4FF801F6CF60915D0370915E030B
:1045A00080E090E04AE00E947B51EEEDF4E08491DF
:1045B0008F010F5F1F4F882321F00E94AE4FF8013B
:1045C000F6CF60915B0370915C0380915D039091E5
:1045D0005E03681B790B80915903815021E030E024
:1045E000823010F020E030E0621B730B80E090E03E
:1045F0004AE00E947B518AE00E94AE4FE6EDF4E073
:1046000084918F010F5F1F4F882321F00E94AE4FCE
:10461000F801F6CF80915F0390916003A091610350
:10462000B09162038E8B9F8BA88FB98FBE016F5F95
:104630007F4FCE0146960E94D94EE9ECF4E084917A
:104640008F010F5F1F4F811106C09E012F5F3F4FEB
:104650007901890104C00E94AE4FF801F0CFD80162
:104660008D918D01882319F00E94AE4FF8CF809173
:10467000630390916403A0916503B09166038E8BF0
:104680009F8BA88FB98FBE016F5F7F4FCE0146967B
:104690000E94D94EE9EBF4E084918F010F5F1F4F28
:1046A000882321F00E94AE4FF801F6CFF7018191E7
:1046B0007F01882319F00E94AE4FF8CF8AE00E9454
:1046C000AE4FE1EBF4E084918F010F5F1F4F882321
:1046D00021F00E94AE4FF801F6CFE1EAF4E08491B8
:1046E0008F010F5F1F4F882321F00E94AE4FF8010A
:1046F000F6CF20E030E04AE754E460916703709120
:1047000068038091690390916A030F945B0842E00B
:104710000E9441528DE60E94AE4F8AE00E94AE4F49
:104720000C94583288E690E00E94E35181110C9479
:1047300058328091B30383FF02C00C94583283E552
:104740000E94CC4E8823C9F00E94524E0F94CD088F
:10475000709335096093340980E00E94F0680E94EC
:10476000524E20E030E04AEA52E40F948D021816CF
:1047700024F00E9461E70E9440F30E94D0FD0C9457
:1047800058328EE40E94CC4E882311F40C94583297
:104790000E941E4E60934009709341098093420924
:1047A000909343090C94583283E50E94854E8823E8
:1047B00059F083E50E94CC4E882319F00E942E4EBA
:1047C00001C080E08093B303E8EAF7E384918F01AE
:1047D0000F5F1F4F882321F00E94AE4FF801F6CFE4
:1047E000E5E1F5E084918F010F5F1F4F882321F0F1
:1047F0000E94AE4FF801F6CF8091B3038823A1F158
:10480000A7E0CA2EA5E0DA2EE12CF12C20E0809161
:10481000B30390E00E2C02C0959587950A94E2F7B9
:1048200080FF17C0BB24B394B20E222319F08CE290
:104830000E94AE4FF60125913491F90184918901CE
:104840000F5F1F4F882321F00E94AE4F9801F5CFD4
:104850002B2DFFEFEF1AFF0A32E0C30ED11C45E00B
:10486000E416F104A1F60CC0E1E1F5E084918F01BA
:104870000F5F1F4F882321F00E94AE4FF801F6CF43
:104880008AE00E94AE4F0C945832109200020C94B1
:1048900058320E943BA90C94583283E50E94CC4EBA
:1048A000882369F00E942E4E8D3320F480934D02B0
:1048B0000C9458328CE380934D020C945832E8EA01
:1048C000F7E384918F010F5F1F4F882321F00E942F
:1048D000AE4FF801F6CF40914D0250E060E070E03D
:1048E00085E295E00E946BE68AE00E94AE4F0C9450
:1048F00058320E9435AD0C9458328DE690E00E94FB
:10490000E35181110C9458328091B30383FF02C0AC
:104910000C94583283E50E94CC4E8A8F81110C94FE
:10492000823282E50E94CC4E81110C9482320C942A
:1049300058328091B30383FF02C00C94583283E550
:104940000E94CC4E882311F40C9458320E94524E8F
:104950000F94CD086436710514F064E670E070932E
:104960003309609332090E94A5680C9458328091F3
:10497000B30383FF02C00C94583283E50E94CC4EEF
:104980008EA381110C94F43382E50E94CC4E8111E8
:104990000C94F4330C9458320E940FAD0C9458329E
:1049A00080E50E94CC4E882341F00E941E4E62306A
:1049B000710510F00C94583202C060E070E0660F90
:1049C000771FFB01EA5CF64F118210820C9458327B
:1049D000109245030C94583281E0809345030C9467
:1049E000583283E50E94CC4E8823A1F00E94524E9B
:1049F00020E030E04AE754E40F94F3020F94D40827
:104A000060934E0270934F02809350029093510234
:104A10000C94583288E50E94854E81110C946D35B6
:104A200089E50E94854E81110C946D358AE50E94BE
:104A3000854E81110C946D3585E40E94854E81115F
:104A40000C946D350E9418A10C94583283E50E9495
:104A5000854E882311F40C9458320E94524E20E067
:104A600030E04AE754E40F94F3020F94D4086093C3
:104A700021127093221280932312909324120C948B
:104A80005832D6018D916D010E94854E882309F41C
:104A90006DC0133009F063C00E94524E4B015C019F
:104AA00020E030E040EA51E40F948D0287FF4EC0D1
:104AB000A50194016091B2057091B3058091B40590
:104AC0009091B5050F945B082B013C019B01AC0153
:104AD0006091A2057091A3058091A4059091A50510
:104AE0000F94F3026093A2057093A3058093A4052D
:104AF0009093A505A30192016091760570917705C9
:104B000080917805909179050F94F3026093760572
:104B10007093770580937805909379056091200CC8
:104B20007091210C8091220C9091230C0F94920291
:104B3000A30192010F94F3020F94D4086093200C08
:104B40007093210C8093220C9093230C8092B205D9
:104B50009092B305A092B405B092B50507C00E942B
:104B6000524EF70160837183828393831F5FF4E069
:104B7000EF0EF11C143009F084CF0E94F7E80C947A
:104B800058320E9408A10E941CAB0C945832E9E5EF
:104B9000F6E084918F010F5F1F4F882321F00E9460
:104BA000AE4FF801F6CF60E089E496E00E94D8AA03
:104BB00061E082E496E00E94D8AA61E087E396E093
:104BC0000E94D8AA61E087E296E00E94D8AA60E03D
:104BD0008EE196E00E94D8AA61E084E196E00E940E
:104BE000D8AA60E08AE096E00E94D8AA60E082E05D
:104BF00096E00E94D8AA61E084EF95E00E94D8AACE
:104C000061E086EE95E00E94D8AA60E087ED95E02D
:104C10000E94D8AA60E089EC95E00E94D8AA60E0E2
:104C200083EB95E00E94D8AA60E082EA95E00E94BA
:104C3000D8AA60E08DE895E00E94D8AA61E08AE7F2
:104C400095E00E94D8AA0C9458328091AE039091BE
:104C5000AF03DC012C91211104C00E9440F30C949D
:104C600058322091100921110C9458320E94629BF5
:104C70000C9458320E9486AA0C945832ECE3F7E068
:104C800084918F010F5F1F4F882321F00E94AE4F48
:104C9000F801F6CFE4E3F7E084918F010F5F1F4F37
:104CA000882321F00E94AE4FF801F6CF659903C02A
:104CB00002EF12E002C007EF12E0F80181918F01CC
:104CC000882319F00E94AE4FF8CF8AE00E94AE4FC1
:104CD000ECE2F7E084918F010F5F1F4F882321F0F2
:104CE0000E94AE4FF801F6CF8091030181FD03C011
:104CF00002EF12E002C007EF12E0D8018D918D01A2
:104D0000882319F00E94AE4FF8CF8AE00E94AE4F80
:104D1000E4E2F7E084918F010F5F1F4F882321F0B9
:104D20000E94AE4FF801F6CF4B9903C002EF12E09C
:104D300002C007EF12E0F80181918F01882309F486
:104D40009FCD0E94AE4FF7CF81E080936C0380939C
:104D50006B030C94583210926C0310926B030C94FA
:104D6000583283E50E94CC4E882319F00E941E4ED3
:104D700002C060E070E08B01112702301105D4F011
:104D8000E1E3F9E384918F010F5F1F4F882321F046
:104D90000E94AE4FF801F6CFE6E5F7E084918F016F
:104DA0000F5F1F4F882311F40C9458320E94AE4FAE
:104DB000F801F4CF88E40E94CC4E8823A9F00E9429
:104DC0001E4E6A3A71053CF06A30F1E07F072CF024
:104DD00069E071E002C06AEA70E0F801EE0FFF1FBF
:104DE000ED59F94F7183608386E40E94CC4E88238D
:104DF000A9F00E941E4EF801EE0FFF1FE959F94F6E
:104E0000718360836F3F710519F014F06FEF70E0EC
:104E100077FF02C060E070E07183608382E40E94EB
:104E2000CC4E882311F40C9458320E941E4E6530EB
:104E3000710534F0663571052CF065E570E002C04F
:104E400065E070E0000F111FF801E15AF94F71831E
:104E500060830C94583288EC90E00E94E3518111F9
:104E60000C94583284E40E94854E8823C1F10E943C
:104E7000524E11E020E030E0A9010F948D02811123
:104E800001C010E01093BA05112349F10E94524E5F
:104E9000E091B40624E0E29FF0011124EA54FA4FB5
:104EA000608371838283938320E030E0A901609165
:104EB000B6057091B7058091B8059091B9050F942A
:104EC0008D0281110CC080E090E0A0EEBFE38093E2
:104ED000B6059093B705A093B805B093B9050E94A5
:104EE000889F0C9458320E943FAA0C94583283E554
:104EF0000E94CC4E8823A1F00E94524E60939205EE
:104F000070939305809394059093950560938A051B
:104F100070938B0580938C0590938D0510E001C0F4
:104F200011E080E50E94CC4E882359F00E94524E39
:104F300060939205709393058093940590939505E3
:104F400010E082E50E94CC4E882359F00E94524E18
:104F500060938E0570938F058093900590939105D3
:104F600010E084E50E94CC4E882361F00E94524EEE
:104F700060938A0570938B0580938C0590938D05C3
:104F80000C945832112311F40C945832409192052C
:104F90005091930560919405709195058EE797E087
:104FA0000E94A5E640918E0550918F056091900575
:104FB000709191058BE797E00E94A5E640918A05E4
:104FC00050918B0560918C0570918D0588E797E075
:104FD0000E94A5E68AE00E94AE4F0C945832B6E5D6
:104FE000CB2EB2E0DB2E10E7E12E13E0F12E10E025
:104FF000D6018D916D010E94854E882351F00E944B
:10500000524EF7016083718382839383812F0E94C4
:1050100010961F5FF4E0EF0EF11C133049F70C946B
:10502000C81F0E9409AC0C94583284918F010F5F05
:105030001F4F882321F00E94AE4FF801F6CF83E581
:105040000E94854E882321F00E94424E80931302D5
:10505000E6EBF7E084918F010F5F1F4F882321F06B
:105060000E94AE4FF801F6CF80911302811103C068
:10507000E2EBF7E002C0EEEAF7E084918F010F5F08
:105080001F4F882321F00E94AE4FF801F6CFE6EAC9
:10509000F7E084918F010F5F1F4F882321F00E945A
:1050A000AE4FF801F6CF2091430530914405409171
:1050B00045055091460560914F05709150058091CE
:1050C0005105909152050F946107AB01BC0184EA30
:1050D00097E00E94A5E62091470530914805409150
:1050E000490550914A05609153057091540580918E
:1050F0005505909156050F946107AB01BC0181EAFB
:1051000097E00E94A5E620914B0530914C05409117
:105110004D0550914E05609157057091580580914D
:10512000590590915A050F946107AB01BC018EE9B6
:1051300097E00E94A5E6E6E9F7E084918F010F5F12
:105140001F4F882321F00E94AE4FF801F6CF209127
:1051500043053091440540914505509146056091C5
:105160000702709108028091090290910A020F943F
:105170006107AB01BC0184E997E00E94A5E620919C
:105180004705309148054091490550914A05609185
:105190000B0270910C0280910D0290910E020F94FF
:1051A0006107AB01BC0181E997E00E94A5E620916F
:1051B0004B0530914C0540914D0550914E05609145
:1051C0000F027091100280911102909112020F94BF
:1051D0006107AB01BC018EE897E00E94A5E68AE07A
:1051E0000E94AE4F0C94583283E50E94CC4E882327
:1051F00011F40C9458320E941E4E70934902609331
:1052000048020C9458328DED90E00E94E3518111D8
:105210000C94583283E50E94CC4E8823E1F1009132
:10522000B40610E00E941E4E000F111FF801EA5B49
:10523000FD4F718360838091B40690E08C01000F74
:10524000111F000F111F98012E5B3D4F7901880F30
:10525000991FFC01EA5BFD4F60817181072E000CF4
:10526000880B990B0F9494022AE037ED43E25CE33C
:105270000F94F302F801E75FF64F208131814281FC
:1052800053810F94F302D7016D937D938D939C937B
:1052900013970C945832E8EAF7E384918F010F5F7B
:1052A0001F4F882321F00E94AE4FF801F6CF85E40E
:1052B0000E94AE4F8091B406805D0E94AE4FE09197
:1052C000B406F0E0EE0FFF1FEA5BFD4F60817181D5
:1052D00086EC97E00E94C2E685E20E94AE4F8AE02B
:1052E0000E94AE4F0C94583280E50E94854E882370
:1052F00011F40C9458320E941E4E6B017C0183E520
:105300000E94CC4E882321F00E941E4E8B0102C0C9
:105310000FEF1FEFC8010196039710F00C9458325D
:10532000D7FE02C00C9458329C2DEEECF7E08DE2D3
:105330008E0F2491921711F40C94583231968E13DB
:10534000F8CF0C9481378AE50E94CC4E81110C94E1
:10535000953583E50E94CC4E81110C9495350C94C3
:10536000583283E50E94CC4E882319F00E941E4ECD
:1053700002C064E071E07F8B6E8B80E50E94CC4EB2
:10538000882339F00E941E4E6938B3E17B0730F460
:1053900002C068EE73E07A83698304C088E893E111
:1053A0009A838983BE016A5E7F4FCE0101960E9477
:1053B000B7E20C94583285E40E94CC4E811110C0A3
:1053C00080E50E94854E882391F00E94524E6093A2
:1053D000520670935306809354069093550607C067
:1053E0000E942E4E882361F3E1E3F9E36FC089E464
:1053F0000E94854E882381F00E94524E2CEA35ECA3
:1054000047E25EE30F94F30260935A0670935B06E3
:1054100080935C0690935D0684E40E94854E882309
:1054200081F00E94524E2CEA35EC47E25EE30F9485
:105430005B086093560670935706809358069093C6
:105440005906E8EAF7E384918F010F5F1F4F882325
:1054500021F00E94AE4FF801F6CF409152065091D4
:105460005306609154067091550683E098E00E94BF
:10547000A5E62CEA35EC47E25EE360915A067091AE
:105480005B0680915C0690915D060F945B08AB0112
:10549000BC018FEF97E00E9488E62CEA35EC47E2EA
:1054A0005EE3609156067091570680915806909180
:1054B00059060F94F302AB01BC018BEF97E00E94F9
:1054C00088E68AE00E94AE4F0C94583284918F0196
:1054D0000F5F1F4F882321F00E94AE4FF801F6CFD7
:1054E000E7E0F8E084918F010F5F1F4F882311F4EC
:1054F0000C9458320E94AE4FF801F4CF83E50E941D
:10550000854E182F882371F00E94524E0F94CD08BB
:10551000709341026093400221E0672B09F020E084
:105520002093BB0880E50E94854E882361F020917E
:10553000400230914102232B11F00E94424E809391
:10554000BB080C94583211110C945832E8EAF7E376
:1055500084918F010F5F1F4F882321F00E94AE4F6F
:10556000F801F6CF8091BB08811103C061E073E0C0
:1055700002C064EF72E08EE298E00E94DBE6609188
:105580004002709141028DE198E00E94C2E6E9E19B
:10559000F8E084918F010F5F1F4F882309F488C7BB
:1055A0000E94AE4FF801F5CF85E40E94CC4E8823CF
:1055B00021F00E941E4E7B0102C0E12CF12C83E4FD
:1055C0000E94CC4E882321F00E941E4E6DAF02C077
:1055D00045E04DAF85E50E94CC4E882319F00E942E
:1055E000424E03C085E50E94854E2A968FAF2A97CA
:1055F000F7FC07C0812C912C66E1A62E63E4B62E41
:1056000006C0812C912C5CE8A52E52E4B52E83E5D2
:105610000E94CC4E882321F00E94524E4B015C0127
:10562000E114F10411F41092B406EA8E0E9435E000
:105630002B013C015A8D57FD03C004E110E002C06C
:105640000CE310E061E06E0D623068F0EAEDF9E025
:1056500084918F010F5F1F4F882309F429C70E948F
:10566000AE4FF801F5CFE4E0FAE084917F019FEFBF
:10567000E91AF90A882321F00E94AE4FF701F5CF0D
:105680000E943B69AA8DA7FF04C08FE78093B306F1
:1056900008C0BA8DEB2FBB0FFF0BEE54F94F8FE70D
:1056A0008083C501B4010F94CD08072E000C880B30
:1056B000990B0F9494026BA37CA38DA39EA39801D6
:1056C000A8EEB3E00F94E0062E966CAF7DAF8EAFE0
:1056D0009FAF2E979B01AC01240D351D461D571D14
:1056E0006A962CAF3DAF4EAF5FAF6A9781E0809373
:1056F000000225964CAE5DAE6EAE7FAE25976296EB
:105700004CAE5DAE6EAE7FAE629721961FAE219716
:1057100066961CAE1DAE1EAE1FAE66971BAA30E489
:105720003CAB4CE14DAB56E45EAB1FAA18AE19AED4
:105730001AAE1FA618AA19AA1AAA1BA61CA61DA64D
:105740001EA6C12CD12C76013FE7832E912CA12CD3
:10575000B12C8FE790E0A0E0B0E08F8F98A3A9A3D1
:10576000BAA329961CAE1DAE1EAE1FAE299791E0BE
:105770009FAF18A61FA210E0212C312C00E0AA8DAB
:105780008A2FAA0F990BFC01EE54F94F6C96FFAFCC
:10579000EEAF6C97880F991F880F991F9C012D53AE
:1057A000374F3CAF2BAF4DAD042E000C550B5EAF09
:1057B0004DAF80910002882309F4CEC00E9435E0ED
:1057C0006B8F7C8F8D8F9E8F8091B106882309F41B
:1057D000A7C00E94FE695A8D57FF09C01091C708E3
:1057E0002090C8083090C9080091CA080BC0ABAD22
:1057F000BCAD1C9111962C90119712963C9012976B
:1058000013960C91212F322D432D502F6FA978AD77
:1058100089AD9AAD0F948D0287FF04C01FAB28AEEF
:1058200039AE0AAF212F322D432D502F6BA97CA901
:105830008DA99EA90F94C109181624F41BAB2CAA9C
:105840003DAA0EABBFAD2BA13CA14DA15EA1612F26
:10585000722D832D902FBB2309F446C00F94C109EC
:1058600018160CF05DC04B8D5C8D6D8D7E8D4419CE
:10587000550966097709DB01CA0188589341A109D6
:10588000B109B7FD4DC08F8D98A1A9A1BAA1881902
:105890009909AA09BB09EA8DB595A79597958795AA
:1058A000E7FF03C08093B30605C06C96EEADFFAD75
:1058B0006C97808329964CAF5DAF6EAF7FAF299711
:1058C000FBA1FFAB2CA128AF3DA139AF4EA14AAF40
:1058D0008B8D9C8DAD8DBE8D25968CAF9DAFAEAF63
:1058E000BFAF25971FAE1CC00F948D0287FF18C055
:1058F0008B8D9C8DAD8DBE8D25962CAD3DAD4EAD69
:105900005FAD2597821B930BA40BB50BAC01BD01BA
:10591000485853416109710977FD02C00C94D13593
:1059200020E030E040EA51E46BA17CA18DA19EA172
:105930000F9461079B01AC01612F722D832D902F75
:105940000F94C10918167CF4E6E6F9E084918F0102
:105950000F5F1F4F811103C00E943B69A9C50E94C0
:10596000AE4FF801F3CF8B8D9C8DAD8DBE8D6296C1
:105970002CAD3DAD4EAD5FAD6297821B930BA40B7A
:10598000B50BB7FDA4C00E94E8678AE00E94AE4F45
:105990008B8D9C8DAD8DBE8D8053984FAF4FBF4F7B
:1059A00062968CAF9DAFAEAFBFAF629721969FADB1
:1059B000219791116BC066962CAD3DAD4EAD5FAD9C
:1059C0006697612F722D832D902F0F94C1091816A1
:1059D0000CF041C020E030E040E050E4612F722D37
:1059E000832D902F0F94610766966CAF7DAF8EAFBD
:1059F0009FAF66972B8D3C8D4D8D5E8D2E968CAD19
:105A00009DADAEADBFAD2E97280F391F4A1F5B1F4E
:105A10006A962CAF3DAF4EAF5FAF6A9720E030E0A3
:105A200040EC50E46BA17CA18DA19EA10F94600776
:105A30009B01AC0191E021969FAF2197612F722DC0
:105A4000832D902F0F94C10918160CF440C0219695
:105A50001FAE21973CC08B8D9C8DAD8DBE8D6A96FF
:105A60002CAD3DAD4EAD5FAD6A97821B930BA40B81
:105A7000B50BB7FD2CC03A8D3F3F19F042E359E01A
:105A800002C044E459E067E579E01EC020E030E060
:105A900040EA51E46BA17CA18DA19EA10F94600707
:105AA0009B01AC01612F722D832D902F0F948D02DD
:105AB00087FF0DC04A8D4F3F19F04BEF58E002C0F1
:105AC0004EE059E062E279E08A8D0E941F6A8B8D78
:105AD0009C8DAD8DBE8D880F991FAA1FBB1F25966B
