:100000000C942A1D0C945B1D0C945B1D0C945B1DC1
:100010000C945B1D0C945B1D0C945B1D0C945B1D80
:100020000C945B1D0C945B1D0C945B1D0C945B1D70
:100030000C945B1D0C94738F0C945B1D0C945B1DD6
:100040000C945B1D0C9474E20C945B1D0C945B1D72
:100050000C945B1D0C945B1D0C9499600C94DDEE6C
:100060000C945B1D0C943F430C945B1D0C945B1D26
:100070000C945B1D0C945B1D0C945B1D0C945B1D20
:100080000C945B1D0C945B1D0C945B1D0C945B1D10
:100090000C945B1D0C945B1D0C945B1D0C945B1D00
:1000A0000C945B1D0C945B1D0C945B1D0C945B1DF0
:1000B0000C945B1D0C945B1D0C945B1D0C945B1DE0
:1000C0000C945B1D0C945B1D0C945B1D0C945B1DD0
:1000D0000C945B1D0C945B1D0C945B1D0C945B1DC0
:1000E0000C945B1DFCBE08BF0FBF15BF1BBF21BF1B
:1000F00027BF2DBFAABF33BFAABFAABF40BFBCD472
:10010000BFD4AED4B2D4B8D4F6D4C3D4C7D4CDD42B
:10011000D1D4D5D4DBD4DFD4E3D4F6D4E9D4EDD430
:10012000F1D476D87BD880D88AD894D80DD99ED8E7
:10013000A6D8AED8B8D8C2D8CCD8DBD8E5D80DD997
:10014000EFD8F9D803D942DC57DC6DDC73DC8EDCE8
:100150009EDCBCDCD3DCD5DDF0DCD5DD06DDD5DD19
:100160000ADD10DD62DD78DD8DDD92DDA9DDC1DD2A
:10017000084AD73B3BCE016E84BCBFFDC12F3D6C0E
:1001800074319ABD56833DDA3D00C77F11BED9E474
:10019000BB4C3E916BAAAABE000000803F05A84C54
:1001A000CDB2D44EB93836A9020C50B99186880820
:1001B0003CA6AAAA2ABE000000803F000C948A69CF
:1001C0000C94B8D80C940DD90C94BE490C9442DC14
:1001D0000C944A6A0C9468EC0C9421BF0C9494D84B
:1001E0000C940F6B0C9476D80C9449960C94F0DC1C
:1001F0000C948AD80C94FCBE0C94E3ED0C94CD4A7C
:100200000C9499EA0C94DBEA0C9457DC0C9440BFF4
:100210000C94AABF0C94DBD80C9406DD0C94645AA1
:100220000C9480D80C94B7660C9492DD0C947BD817
:100230000C9415BF0C9401990C944E9C0C942D8F2A
:100240000C94B2490C94A9DD0C940D6B0C9473DCE6
:100250000C94FAAE0C942A590C9410DD0C94BCD476
:100260000C94718F0C94E5D80C94DE8E0C94CA58C3
:100270000C94F9D80C946DDC0C94E4530C9446BCAB
:100280000C94BCDC0C948DDD0C94CCD80C94CE99E1
:100290000C94F9A90C94876D0C9444370C9449BCC8
:1002A0000C94F1D40C941F9B0C94C2D80C948A8D9E
:1002B0000C9433BF0C940D990C9416F90C94D097B0
:1002C0000C94F8AE0C949EDC0C94DBB00C94A6D885
:1002D0000C9427BF0C9411970C9493EA0C94EDD4D2
:1002E0000C9467BD0C94AED80C949FEA0C94C7D4C0
:1002F0000C949A880C941DAC0C9472EC0C94DC5405
:100300000C9445BC0C94EFD80C9408BF0C94BFD44B
:100310000C94695A0C941BBF0C94FB530C94DEB0E4
:100320000C9462DD0C94B2D40C94CDD40C94F6D41D
:100330000C94E9D40C94E8ED0C940FBF0C946DEC84
:100340000C94B4490C949ED80C9403D90C94AA9A9A
:100350000C94B8D40C94AED40C9478DD0C94D8766C
:100360000C9479AD0C942FA90C9403990C940ADD8C
:100370000C94A5870C9477AD0C94519A0C94EE4C88
:100380000C942DBF0C940A6B0C94D3DC0C94D1D438
:100390000C94226B0C948EDC0C94D5D40C948A951E
:1003A0000C94DA660C94DBD40C9412540C94D5DDC6
:1003B0000C94C3D40C94DFD40C94E3D40C94C1DD1E
:1003C0004E414E494E495459494E46CDCCCC3D0A3A
:1003D000D7233C17B7D13877CC2B329595E6241F1D
:1003E000B14F0A000020410000C84200401C4620D6
:1003F000BCBE4CCA1B0E5AAEC59D74434F4D4D55E5
:100400004E49434154494F4E0044525952554E00B3
:100410004552524F525300494E464F004543484FB4
:1004200000536C6565702E2E2E00206F6620004DE7
:10043000424C2047323920706F696E742000592079
:100440006F7574206F662072616E67652028312D8C
:1004500033292E0A0058206F7574206F6620726150
:100460006E67652028312D33292E0A004D6573688B
:100470002070726F62696E6720646F6E652E0A006D
:100480005374617274206D6573682070726F626955
:100490006E672077697468202247323920533122F1
:1004A0002066697273742E0A004732380A4732395F
:1004B0002053320053746174653A20004D657368AF
:1004C00020626564206C6576656C696E6720686182
:1004D00073206E6F20646174612E0A0053206F7563
:1004E00074206F662072616E67652028302D352973
:1004F0002E0A004D65736820706F696E7420636109
:100500006E6E6F74206265207265736F6C766564C1
:100510000A00436C69636B20746F20726573756D9C
:10052000652E2E2E0050726F7465637465642050C2
:10053000696E0A0046696C616D656E74207573653D
:10054000643A200053746174733A20002C204C6F7D
:100550006E67657374206A6F623A2000546F74612D
:100560006C2074696D653A200053746174733A208D
:10057000002C204661696C65643A20002C20466995
:100580006E69736865643A20005072696E74733ADC
:10059000200053746174733A20001C041704100483
:1005A0000904FB036F66660044454255473A004B19
:1005B000494C4C45442E20004D313133205300200E
:1005C000573A0042656420636F6F6C696E672E2E28
:1005D0002E004265642068656174696E672E2E2E58
:1005E000002F2F20007A5F6D696E3A2000795F6DD1
:1005F000696E3A2000785F6D696E3A20005265702E
:100600006F7274696E6720656E6473746F702073A7
:1006100074617475730A00205400205200416363B2
:10062000656C65726174696F6E3A20500057415273
:100630004E494E4721204C6F77205A204A65726BF5
:10064000206D6179206C65616420746F20756E7710
:10065000616E746564207061757365732E0A004F56
:10066000666673657473206170706C6965640045BB
:1006700072723A20546F6F206661722100546F6F5E
:10068000206661722066726F6D20726566657265A4
:100690006E636520706F696E740A00205A002059DD
:1006A00000580020204D61783A2000205A0020593F
:1006B00000580020204D696E3A20004F6E20004FF8
:1006C000666600536F667420656E6473746F707332
:1006D0003A200020466C6F773A200000013637261A
:1006E00003FFFFFF3B3C3D380EFFFFFF3F2E303E38
:1006F00012FFFFFFFF28FF0C080907FFFF1A1C1855
:10070000FFFF2A08440AFF4320643A0020693A00A8
:1007100020703A00496E76616C6964206578747265
:10072000756465720A0043290A0061626C65642081
:10073000286D696E2074656D702000436F6C6420B5
:1007400065787472756465732061726520004B640E
:10075000200023646566696E652044454641554C1A
:10076000545F004B69200023646566696E65204410
:10077000454641554C545F004B702000236465662C
:10078000696E652044454641554C545F00504944CC
:10079000204175746F74756E652066696E69736843
:1007A0006564212050757420746865206C617374D1
:1007B000204B702C204B6920616E64204B642063B9
:1007C0006F6E7374616E74732066726F6D206265F4
:1007D0006C6F7720696E746F20436F6E6669677502
:1007E000726174696F6E2E680A0050494420417529
:1007F000746F74756E65206661696C656421207420
:10080000696D656F75740A00453120544845524D35
:10081000414C2052554E41574159004245442054C5
:100820004845524D414C2052554E41574159005474
:100830006865726D616C2052756E617761790045F3
:10084000312048656174696E67206661696C656412
:10085000004265642068656174696E67206661693D
:100860006C65640048656174696E67206661696CD7
:10087000656400504944204175746F74756E65203D
:100880006661696C6564212054656D706572617480
:1008900075726520746F6F20686967680A00204B65
:1008A000643A2000204B693A2000204B703A200027
:1008B0000A20436C617373696320504944200A0025
:1008C0002054753A2000204B753A2000206D617845
:1008D0003A2000206D696E3A200020643A20002002
:1008E000626961733A2000504944204175746F7405
:1008F000756E65206661696C6564212042616420C3
:100900006578747275646572206E756D6265720AC1
:1009100000504944204175746F74756E652073747E
:100920006172740A0020643A0020693A0020703A2B
:10093000004E6F2063617365206C696768740A00FC
:100940004F66660A00466164652048656967687499
:100950002000426564204C6576656C696E672000F6
:100960004661696C656420746F20656E61626C65B8
:1009700020426564204C6576656C696E670A004D9F
:1009800065736820426564204C6576656C206461FF
:1009900074613A0A0041637469766520457874721F
:1009A000756465723A2000496E76616C69642065F1
:1009B000787472756465720A002569730025696D23
:1009C00020256973002569682025696D20256973D4
:1009D00000256964202569682025696D20256973D3
:1009E0000025697920256964202569682025696DBD
:1009F0002025697300656E7175657565696E672080
:100A000022004C696E65204E756D626572206973B7
:100A1000206E6F74204C617374204C696E65204E9B
:100A2000756D6265722B312C204C617374204C699A
:100A30006E653A20004B494C4C45442E20005354DF
:100A40004F505045442E20005072696E74657220DC
:100A500073746F707065642064756520746F2065B1
:100A600072726F72732E20466978207468652065F3
:100A700072726F7220616E6420757365204D393912
:100A80003920746F20726573746172742E2028543B
:100A9000656D706572617475726520697320726529
:100AA0007365742E205365742069742061667465C3
:100AB000722072657374617274696E67290A004EE0
:100AC0006F20436865636B73756D20776974682068
:100AD0006C696E65206E756D6265722C204C617359
:100AE00074204C696E653A2000636865636B7375AA
:100AF0006D206D69736D617463682C204C61737433
:100B0000204C696E653A20004D3131300020496E2D
:100B100076616C6964206578747275646572200012
:100B20000000000000000000000000000000A043E2
:100B3000000096430000C84320286D6D2900543002
:100B40002045005A005900580048796272696420B3
:100B50005468726573686F6C643A0A0054302045BB
:100B6000005A005900580053746570706572206413
:100B700072697665722063757272656E743A0A00E6
:100B800020440020490020204D33303420500020E4
:100B9000440020490020204D33303120500050497E
:100BA000442073657474696E67733A0A00204600C6
:100BB00020420020480020204D3134352053004D84
:100BC0006174657269616C2068656174757020700C
:100BD0006172616D65746572733A0A00205A002073
:100BE00059002020473239205333205800205A0022
:100BF00020204D3432302053004D6573682042650B
:100C000064204C6576656C696E673A0A00205A006C
:100C100020590020204D323036205800486F6D6535
:100C2000206F66667365743A0A00204500205A00FA
:100C300020590020580020420020540020204D322E
:100C40003035205300416476616E6365643A205309
:100C50003C6D696E5F66656564726174653E2054C3
:100C60003C6D696E5F74726176656C5F6665656424
:100C7000726174653E20423C6D696E5F7365676D9D
:100C8000656E745F74696D655F75733E20583C6D69
:100C900061785F78795F6A65726B3E205A3C6D615E
:100CA000785F7A5F6A65726B3E20453C6D61785F64
:100CB000655F6A65726B3E0A002054002052002076
:100CC000204D323034205000416363656C657261A1
:100CD00074696F6E2028756E6974732F7332293AA8
:100CE00020503C7072696E745F616363656C3E2076
:100CF000523C726574726163745F616363656C3EDC
:100D000020543C74726176656C5F616363656C3E10
:100D10000A00204500205A0020590020204D323082
:100D2000312058004D6178696D756D2041636365B0
:100D30006C65726174696F6E2028756E6974732FAB
:100D40007332293A0A00204500205A002059002019
:100D5000204D3230332058004D6178696D756D201B
:100D60006665656472617465732028756E69747355
:100D70002F73293A0A00204500205A0020590020EC
:100D8000204D39322058005374657073207065729D
:100D900020756E69743A0A0020204D3230302044AC
:100DA000300A0020204D3230302044002044697346
:100DB00061626C65640A0046696C616D656E7420E1
:100DC00073657474696E67733A0020204D3134394D
:100DD0002043203B20556E69747320696E20436563
:100DE0006C736975730A002020473231202020205F
:100DF0003B00454550524F4D204F4B0A00617869EA
:100E0000733A70776D5F7363616C65207C73746196
:100E10007475735F726573706F6E73657C0A004BD7
:100E2000494C4C45442E2000202D20496E76616CA3
:100E30006964206578747275646572206E756D6280
:100E4000657220210A000000000000000000000080
:100E50000000000000000000000000000000000092
:100E6000000000000000000001F000000000000091
:100E7000000000000000000007FC000000E03180DE
:100E80000000300F83F000000FFE000001F83180F9
:100E90000000303FC3F800000FFE0000030C01808B
:100EA00000003070430C00001FFF000002000183AF
:100EB00003F07860030C00001FFF000002000183B4
:100EC00003F07860030C00001FBF00000300318FA7
:100ED000C3F878C0030C00001F1F000001F0318C24
:100EE000630C30C003F800001F1F0000007C319825
:100EF000630C30C003F800001EAF0000000C319FEF
:100F0000E30C30C0031800001EAE00000004319F47
:100F1000C30C3060030C00000DB60000060C3198C5
:100F2000030C3070C30C000001B0000003F8318FD7
:100F3000C30C383FC30C000003B8000000F031833D
:100F4000820C100F0204000007B80000000000002F
:100F5000000000000000000007BC000000000000CE
:100F600000000000000000000FBE000000000000B4
:100F700000000000000000000FBE00000108004853
:100F80000104303C004000000FBE00000108004892
:100F90000104303C004000001FBF000001980040E9
:100FA000030C5020004000001FBF000001F9F3CBEC
:100FB00081047021875800003FBF8000016B334AD5
:100FC0004104703B467000007FBF8000010A124A56
:100FD00041044822446000007FBFC000010B324A38
:100FE0004104482244500000FFBFE0000109F24ADA
:100FF0004165302184400000FFBFE0000000000098
:101000000000000000000001FFBFF0000000010030
:101010000007023000000001FFBFF00000000300E5
:1010200003E5867800000007FFBFF80000000733E3
:10103000860482480000000FFE1FF8000000025BDB
:10104000040582480000000FFE1FF8000000025B4C
:10105000040582480000000FFCE7FC000000024A83
:10106000040732480000001FF3F9FF000000024AA5
:10107000066482780000039FCFFE7F3800000232B2
:1010800001E4823000001FBF9FFF3FBE0000000050
:101090000000000000003F3E7FFFCFBF8000000047
:1010A0000000000000003F71FFFFF3DF8000000040
:1010B0000000000000007ECFFFFFF8CFC00000005E
:1010C0000000000000007E9FFFFFFF2FC000000017
:1010D0000000000000007C7FFFFFFFC7C000000091
:1010E0000000000000007C0000000007C0C01500E8
:1010F00000624B81C3A27FF800000FFFC0A0050073
:1011000000765A0322327FF8000007FFC0A5178639
:10111000387E7302023A7FF8000007FFC0A51786E9
:10112000387E7302023A3FF8000007FF80E5150998
:10113000286A70C2E3AE3FF0000003FF0095150976
:101140002862584322260FE0000000FE00E2150648
:1011500028624B81C3A200000000000000000000D4
:10116000000000000000000000000000000000007F
:10117000000000000000000000000000000000006F
:10118000000000000000000000000000000000005F
:101190000000000000007DC000000001C000000051
:1011A0000000000000007DE6C63183A7C0100000EB
:1011B0002010000000001136E671C7A400100000E6
:1011C0002010000000001136E659C7AC001E240EA6
:1011D0002F127387873011E6F6C9E7AC001B241283
:1011E000291C4206C64811E6F6C9E7AC001B2412CA
:1011F000291C4206C64811E6DECDEFAC00112412D0
:101200002F1C738444481126CEFDBBAC001324125E
:1012100028165286C4481136CF85BBA6001E1C0E68
:101220002612739784301116850710A3C0000C0096
:101230000000000400000000000000000000180092
:101240000000000400001FFFFFFFFFFFFF60000021
:10125000000001FF400000000000FF8000000000CF
:10126000007F83CF00000C303F87FF80000C301FD1
:10127000867980000C000F8C30C7838C30E78C306F
:10128000CFC7CC31F38C30DCECEC33B98C30D86C7C
:101290006C33198C30D06C0C33198C30D86C0C3307
:1012A000198C30DC6C0E3B198C30CF7C079F198C6D
:1012B00030C77C038F19400000000000026000006E
:1012C000000000061FFFFFFFFFFFF82020506C61A9
:1012D0006E6E657242756666657242797465733AC0
:1012E00020002046726565204D656D6F72793A2049
:1012F00000436F6D70696C65643A204A756E2020FA
:101300003220323031380A00207C20417574686FF9
:10131000723A2028416C656B73616E64657220536C
:101320006F626F6C6577736B69290A0032303138F0
:101330002D30312D323000204C6173742055706493
:10134000617465643A20006275676669782D312E94
:10135000312E780A004D61726C696E0020536F6601
:1013600074776172652052657365740A0020576155
:10137000746368646F672052657365740A00204265
:10138000726F776E206F75742052657365740A00F2
:101390002045787465726E616C2052657365740ABD
:1013A00000506F77657255700A0073746172740A29
:1013B00000456E6473746F7073202563202563206D
:1013C000256320256300205A3A0020593A0020580E
:1013D0003A00656E6473746F7073206869743A20A4
:1013E0000000060900FE0701920321207FFF07FF8E
:1013F00007FF0000000600000107070602008080CA
:101400008080800080030202060105A0A005070776
:101410000600005050F850F850500507070600002D
:101420002078A07028F020050707060000C0C8102B
:10143000204098180507070600006090A040A8907B
:1014400068020303060104C0408003070706010089
:101450002040808080402003070706010080402054
:101460002020408005050506000120A870A8200561
:1014700005050600012020F820200203030602FFD4
:10148000C04080050101060003F8020202060200C6
:10149000C0C00505050600010810204080050707AB
:1014A0000600007088888888887003070706010096
:1014B00040C040404040E005070706000070880833
:1014C000708080F8050707060000F8102010080853
:1014D000F005070706000010305090F810100507BF
:1014E00007060000F880F008088870050707060066
:1014F00000708080F0888870050707060000F808F3
:1015000010202020200507070600007088887088BA
:101510008870050707060000708888780808700240
:101520000505060200C0C000C0C00206060602FF94
:10153000C0C000C0408004070706000010204080A3
:10154000402010050303060002F800F80407070610
:101550000100804020102040800507070600007031
:10156000880810200020050707060000708808681A
:10157000A8A870050707060000708888F888888882
:10158000050707060000F08888F08888F00507073F
:1015900006000070888080808870050707060000BC
:1015A000F08888888888F0050707060000F88080A2
:1015B000F08080F8050707060000F88080F0808042
:1015C00080050707060000708880B88888700507C6
:1015D00007060000888888F88888880107070602BF
:1015E000008080808080808005070706000038101A
:1015F00010101090600507070600008890A0C0A09A
:101600009088050707060000808080808080F805AC
:10161000070706000088D8A8888888880507070675
:1016200000008888C8A89888880507070600007009
:10163000888888888870050707060000F08888F089
:1016400080808005070706000070888888A8906859
:10165000050707060000F08888F0A09088050707B6
:10166000060000788080700808F005070706000073
:10167000F820202020202005070706000088888801
:101680008888887005070706000088888888885041
:10169000200507070600008888888888A850050765
:1016A0000706000088885020508888050707060034
:1016B0000088888850202020050707060000F808C9
:1016C00010204080F8030707060100E0808080803A
:1016D00080E005050506000180402010080307078B
:1016E000060100E02020202020E00503030600047E
:1016F000205088050101060000F8020202060205DA
:101700008040050505060000700878887805070701
:101710000600008080B0C88888F005050506000036
:1017200070808088700507070600000808689888A0
:1017300088780505050600007088F88070050707A1
:101740000600003048E0404040400506060600FF25
:101750007088887808700507070600008080B0C888
:1017600088888801070706020080008080808080CA
:101770000308080601FF200020202020A0400407C5
:1017800007060000808090A0C0A090030707060114
:1017900000C04040404040E0050505060000D0A8DC
:1017A000A8A8A8050505060000B0C8888888050512
:1017B0000506000070888888700506060600FFF0A0
:1017C0008888F080800506060600FF7888887808FB
:1017D00008050505060000B0C880808005050506DF
:1017E000000070807008F00407070600004040E029
:1017F0004040403005050506000088888898680547
:1018000005050600008888885020050505060000AB
:101810008888A8A850050505060000885020508833
:101820000506060600FF8888887808700505050605
:101830000000F8102040F803070706010020404090
:101840008040402001070706020080808080808061
:1018500080030707060100804040204040800502C9
:1018600002060002689000000006000045787472CD
:1018700075646572004D6F7665205A004D6F766510
:101880002059004D6F766520580050726570617266
:101890006500496E697469616C697A6520454550D7
:1018A000524F4D00436F6E74726F6C0052657374CB
:1018B0006F7265206661696C73616665004C6F616B
:1018C000642073657474696E677300496E69746926
:1018D000616C697A6520454550524F4D0053746FD5
:1018E00072652073657474696E67730046696C6114
:1018F0006D656E74004D6F74696F6E0054656D7028
:1019000065726174757265004D61696E0050726533
:10191000686561742041425320636F6E66005072A7
:10192000656865617420504C4120636F6E6600509D
:1019300049442D44005049442D44005049442D4908
:10194000005049442D49005049442D50005049440D
:101950002D50002008204661637400200820466155
:101960006374002008204D6178002008204D6178C4
:10197000002008204D6178002008204D696E00206D
:1019800008204D696E002008204D696E004F666684
:10199000004F6E20004175746F74656D7000466174
:1019A0006E20737065656420320046616E2073702E
:1019B00065656420320046616E2073706565642041
:1019C000320046616E2073706565642031004661A7
:1019D0006E20737065656420310046616E207370FF
:1019E00065656420310042656400426564004E6FA5
:1019F0007A7A6C65004E6F7A7A6C6500436F6E740C
:101A0000726F6C0053746F72652073657474696EC5
:101A10006773004265640042656400426564004E7D
:101A20006F7A7A6C65004E6F7A7A6C65004E6F7AC9
:101A30007A6C650046616E2073706565640046616E
:101A40006E2073706565640046616E207370656515
:101A5000640054656D706572617475726500700123
:101A60002C0190012701B0012201C0011D01F001EC
:101A700018011002130130020E01600209019002E8
:101A80000401C002FF000003FA004003F5008003D8
:101A9000F000D003EB002004E6007004E100E00455
:101AA000DC004005D700C005D2004006CD00D006BE
:101AB000C8008007C3003008BE00F008B900C009A4
:101AC000B400B00AAF00B00BAA00D00CA500000E05
:101AD000A000500F9B00C0109600501291000014FF
:101AE0008C00C0158700B0178200B0197D00D01B94
:101AF0007800001E730040206E0090226900F024E0
:101B0000640040275F0090295A00E02B5500102EFA
:101B1000500020304B0010324600E0334100903539
:101B20003C001037370070383200A0392D00B03A31
:101B30002800A03B2300603C1E00103D1900903D92
:101B40001400103E0F00703E0A00C03E0500003F2A
:101B50000000403FFBFF803FF6FFC03FF1FF4534F0
:101B6000004533004532004531004530005A32000F
:101B70005932005832005A00590058006265640A10
:101B8000002C2073797374656D2073746F707065A9
:101B90006421204865617465725F49443A200042BF
:101BA00065642068656174696E67206661696C654B
:101BB000640048656174696E67206661696C65647C
:101BC0000045312048656174696E67206661696C03
:101BD00065640048656174696E67206661696C655B
:101BE00064001000C90210012C01400122017001A3
:101BF0001801B0010E01F00104015002FA00B00218
:101C0000F0003003E600D003DC009004D200700541
:101C1000C800A006BE000008B400B009AA00D00B9E
:101C2000A000600E960060118C0000158200201943
:101C30007800C01D6E00A0226400B0275A00902CCE
:101C4000500000314600E0343C0010383200903A39
:101C50002800603C1E00A03D1400803E0A00203F8A
:101C60000000453120544845524D414C2052554EBC
:101C7000415741590042454420544845524D414C3A
:101C80002052554E4157415900546865726D616C40
:101C90002052756E61776179004531204572723A44
:101CA000204D415854454D50004572723A204D41E7
:101CB0005854454D5020424544004D415854454DDF
:101CC000502074726967676572656400453120450C
:101CD00072723A204D494E54454D50004572723A49
:101CE000204D494E54454D5020424544004D494EEB
:101CF00054454D50207472696767657265640020B1
:101D00002F002042403A0020403A0025753A253005
:101D1000327500253032753A2530327500257564EC
:101D200020253032753A25303275007A1B781B76C3
:101D30001B731B701B6D1B6A1B671B641B611B5E87
:101D40001B747275650066616C7365002074656D47
:101D50007065726174757265207072657761726EFC
:101D6000207472696767657265643A20002070723A
:101D7000657761726E20666C616720636C65617265
:101D800065640A004261627973746570205A00428A
:101D900061627973746570205A00466C6F770046F3
:101DA0006C6F770046616E20737065656420320049
:101DB00046616E20737065656420320046616E2056
:101DC000737065656420320046616E2073706565CE
:101DD0006420310046616E207370656564203100B7
:101DE00046616E2073706565642031004265640051
:101DF000426564004E6F7A7A6C65004E6F7A7A6C39
:101E000065004661646520486569676874004661DD
:101E1000646520486569676874005370656564008F
:101E20005370656564005370656564004D61696E4B
:101E3000005072656865617420504C4120456E64A5
:101E4000005072656865617420504C4120426564A1
:101E5000005072656865617420504C410050726595
:101E6000706172650050726568656174204142530B
:101E700020456E640050726568656174204142536C
:101E80002042656400507265686561742041425368
:101E90000050726570617265004D343238005072C6
:101EA000656865617420504C4100436F6F6C646FCE
:101EB000776E00507265686561742041425300443A
:101EC000697361626C65207374657070657273000C
:101ED0004D38340053657420686F6D65206F6666F9
:101EE000736574730046616465204865696768744A
:101EF000004661646520486569676874004F6666DE
:101F0000004F6E2000426564204C6576656C696EFA
:101F100067004C6576656C20626564004732380A5C
:101F200047323900486F6D65205A00473238205AD1
:101F300000486F6D65205900473238205900486FBE
:101F40006D652058004732382058004175746F2065
:101F5000686F6D6500473238004D6F766520617897
:101F60006973004D61696E005374657072617465C8
:101F700020746F6F20686967683A200024F4D430B9
:101F800050C38E20C2A24017828B7011127A910D1D
:101F9000816CD90AA861E108C758660761514306F8
:101FA0001E4B5D05C145A7041A411104093D980364
:101FB000713931034036DB0265339102D43054026B
:101FC000802E1D02632CEE01752AC501B028A001E8
:101FD000102781018F2564012B244B01E02234015D
:101FE000AC211F018D200D01801FFC00841EED001F
:101FF000971DDF00B81CD200E61BC600201BBC00EA
:10200000641AB200B219A8000A19A0006A1899004F
:10201000D117910040178B00B516840031167E0051
:10202000B31579003A157300C7146F0058146A008D
:10203000EE1366008813630025135E00C7125B0071
:102040006C12570015125400C111510070114F004D
:1020500021114B00D61049008D1047004610440056
:1020600002104200C00F4000800F3E00420F3C00B3
:10207000060F3B00CB0E3800930E37005C0E350088
:10208000270E3400F30D3200C10D3100900D3000E9
:10209000600D2E00320D2D00050D2C00D90C2B00EB
:1020A000AE0C2900850C29005C0C2700350C27009C
:1020B0000E0C2600E80B2400C40B2400A00B230008
:1020C0007D0B23005A0B2100390B2100180B200037
:1020D000F80A1F00D90A1E00BB0A1E009D0A1D0037
:1020E000800A1D00630A1C00470A1B002C0A1B0003
:1020F000110A1A00F7091A00DD091900C4091900AC
:10210000AB091900920917007B0918006309170031
:102110004C09160036091600200916000A09150098
:10212000F5081500E0081400CC081400B8081400E5
:10213000A4081400900813007D0812006B08130017
:102140005808120046081200340811002308110034
:102150001208110001081100F0071000E00710003C
:10216000D0071000C0071000B0070F00A107100033
:1021700091070E0083070F0074070F0065070E001C
:1021800057070E0049070E003B070D002E070E00F3
:1021900020070D0013070D0006070D00F9060C00BF
:1021A000ED060D00E0060C00D4060C00C8060C007D
:1021B000BC060C00B0060C00A4060B0099060C002F
:1021C0008D060B0082060B0077060B006C060B00D9
:1021D00061060A0057060B004C060A0042060A0078
:1021E00038060A002E060A0024060A001A060A000B
:1021F0001006090007060A00FD050900F40509009C
:10220000EB050900E2050900D9050900D005090020
:10221000C7050900BE050900B5050800AD050800A1
:10222000A50509009C050800940508008C05080018
:10223000840508007C050800740508006C0507008B
:10224000650508005D050700560508004E050700F6
:10225000470507004005080038050700310507005D
:102260002A050700230507001C05060016050700C0
:102270000F0507000805060002050700FB0406001D
:10228000F5040700EE040600E8040600E204070077
:10229000DB040600D5040600CF040600C9040600CE
:1022A000C3040600BD040600B7040600B10405001F
:1022B000AC040600A6040600A00405009B0406006A
:1022C00095040500900406008A04050085040500B5
:1022D000800406007A0405007504050070040500FA
:1022E0006B04050066040500610405005C0405003C
:1022F00057040500520405004D040500480405007C
:10230000430405003E0404003A04050035040500BA
:10231000300404002C0405002704040023040500F5
:102320001E0404001A04040016040500110404002D
:102330000D04040009040500040404000004040062
:10234000FC030400F8030400F4030400F003040099
:10235000EC030400E8030400E4030400E0030400C9
:10236000DC030400D8030400D4030400D0030400F9
:10237000CC030400C8030300C503030024F404D9FC
:10238000201BC40C5C0E9804C4095F026507710130
:10239000F405F900FB04B30048048700C103690099
:1023A0005803550003034500BE023A008402310081
:1023B00053022A002902250004022000E4011C0027
:1023C000C8011900AF01170098011400840113001F
:1023D000710110006101100051010E0043010D0058
:1023E00036010B002B010B0020010B001501090029
:1023F0000C01090003010800FB000800F3000800BD
:10240000EB000700E4000600DE000600D80006002E
:10241000D2000600CC000500C7000500C200050080
:10242000BD000400B9000400B5000400B1000400C0
:10243000AD000400A9000400A5000300A2000300F1
:102440009F0004009B000300980003009500020019
:1024500093000300900003008D0002008B00030036
:102460008800020086000200840003008100020050
:102470007F0002007D0002007B0002007900020064
:102480007700010076000200740002007200010073
:10249000710002006F0002006D0001006C0002007C
:1024A0006A00010069000200670001006600010087
:1024B000650001006400020062000100610001008B
:1024C000600001005F0002005D0001005C0001008F
:1024D0005B0001005A000100590001005800010092
:1024E0005700010056000100550001005400010092
:1024F0005300000053000100520001005100010090
:10250000500001004F0001004E0000004E0001008D
:102510004D0001004C0001004B0000004B00010089
:102520004A00010049000100480000004800010085
:102530004700010046000000460001004500000081
:102540004500010044000100430000004300010079
:102550004200000042000100410000004100010073
:10256000400001003F0000003F0001003E0000006D
:102570003E0001003D0000003D0001003C00000065
:102580003C0000003C0001003B0000003B0001005B
:102590003A0000003A000100390000003900010053
:1025A000380000003800000038000100370000004B
:1025B0003700010036000000360000003600010040
:1025C0003500000035000000350001003400000037
:1025D000340000003400010033000000330000002C
:1025E0003300010032000000320000003200010020
:1025F0003100000031000000310001003000000017
:1026000030000000300001002F0000002F0000000B
:102610002F0000002F0001002E0000002E000000FF
:102620002E0001002D0000002D0000002D000000F4
:102630002D0001002C0000002C0000002C000000E8
:102640002C0001002B0000002B0000002B000000DC
:102650002B0001002A0000002A0000002A000000D0
:102660002A000100290000002900000029000000C4
:1026700029000000290001002800000028000000B7
:1026800028000000280000002800010027000000AA
:10269000270000002700000027000000270001009D
:1026A0002600000026000000260000002600000092
:1026B0002600010025000000250000002500000084
:1026C0002500000025000000250001002400000076
:1026D0002400000024000000240000002400010069
:1026E000230000002300000023000000230000005E
:1026F000230000002300000023000100220000004E
:102700002200000022000000220000002200000041
:102710002200010021000000210000002100000033
:102720002100000021000000210000002100010024
:102730002000000020000000200000002000000019
:102740002000000020000000200000002000010008
:102750001F0000001F0000001F0000001F000000FD
:102760001F0000001F0000001F0001001E000000ED
:102770001E0000001E0000001E00000020746F6F8D
:10278000206C6F6E6720657874727573696F6E2048
:1027900070726576656E7465640A0020636F6C64A0
:1027A00020657874727573696F6E207072657665D6
:1027B0006E7465640A0000060900FE000000000057
:1027C00001090008FE000005080806000040F0C8E6
:1027D0008888987810050808060000C0F88888885E
:1027E0008888F80505050600012030F83020050826
:1027F000080600002070F820202020E005090906C6
:1028000000FF2070A8A8B888887020050909060074
:10281000FFE080C0B0A8283028280509090600FF7D
:10282000F8A88888888888A8F8050A0A0600FE2083
:102830005050505088A8A888700303030600034036
:10284000A040202020202020005A005900202020D5
:1028500020005800092000000000000000000000D7
:102860000000003FFFF0000000000000000000003A
:1028700000003800700000000000000000000000B0
:102880000030FC30000000000000000000000000EC
:1028900020FC1000000000000000000000000020EC
:1028A0007810000000000000000000000000203050
:1028B000100000000000000000000000002C00D00C
:1028C0003FC0000000000000002082002E31D07FB9
:1028D000E0000000000000001041002F7BD07FE0EE
:1028E000000000000000001041002F7BD07FE000BE
:1028F0000000000000002082002E31D03FC0000008
:1029000000000000004104002C00D03FC000000087
:10291000000000008208002030107FE0000000006E
:102920000000008208002078107FE0000000000016
:10293000000041040020FC107FE0000000000000C7
:102940000020820030FC301F8000000000000000EA
:102950000000003800700F0000000000000000FFC1
:10296000FFC03FFFF0060000000000000000FFFF76
:10297000C000000000000000000000000000000097
:102980003FFFF000000000000000000000000038E1
:102990000070000000000000000000000000318610
:1029A000300000000000000000000000002387103D
:1029B00000000000000000000000000027879000D9
:1029C00000000000000000000000002F87D0000081
:1029D000000000000000000000002F03D03FC000F6
:1029E0000000000000002082002030107FE0000086
:1029F00000000000001041002078107FE00000007F
:102A0000000000001041002078107FE0000000006E
:102A10000000002082002030103FC00000000000B5
:102A200000004104002F03D03FC000000000000060
:102A3000008208002F87D07FE00000000000000027
:102A40008208002787907FE000000000000000411E
:102A500004002387107FE0000000000000002082B7
:102A6000003186301F8000000000000000000000E0
:102A70003800700F0000000000000000FFFFC03FA2
:102A8000FFF0060000000000000000FFFFC0000093
:102A90000053696C656E7443522052656164792EEF
:102AA000005072696E74696E672E2E2E0050726926
:102AB0006E74207061757365640041626F75742077
:102AC0005072696E74657200436F6E74726F6C0041
:102AD000507265706172650054756E6500496E666E
:102AE0006F2073637265656E000246696C2E204428
:102AF00069612E0046696C2E204469612E004F6684
:102B000066004F6E20004520696E206D6D330043D6
:102B10006F6E74726F6C00004578747275646564D2
:102B200020746F74616C3A2000256C642E25696DE9
:102B300000004C6F6E67657374206A6F6220746961
:102B40006D653A200000546F74616C207072696E7C
:102B5000742074696D653A2000436F6D706C657404
:102B600065643A20005072696E7420436F756E740C
:102B70003A20004D61782054656D703A2031303034
:102B8000004D696E2054656D703A203500544265E1
:102B9000643A4154432031303447542D32004D6162
:102BA000782054656D703A20323830004D696E20BF
:102BB00054656D703A20350054303A204550434FEB
:102BC00053203130304B005053553A2047656E65E5
:102BD0007269630050726F746F636F6C3A20312EAC
:102BE0003000426175643A20323530303030004D6B
:102BF0004B532047454E203E2076312E33004D6505
:102C00007368204C6576656C696E670045787472F0
:102C100075646572733A203100687474703A2F2FAE
:102C20006D61726C696E66772E6F72670053696CA6
:102C3000656E74435200323031382D30312D3230D0
:102C4000006275676669782D312E312E78004D61EE
:102C5000726C696E005072696E7465722053746193
:102C6000747300546865726D6973746F7273004297
:102C70006F61726420496E666F005072696E746590
:102C80007220496E666F004D61696E002053697A4B
:102C9000653A2000496E6465783A200056547261A6
:102CA00076206D696E005654726176206D696E00F3
:102CB0005654726176206D696E00566D696E0056CD
:102CC0006D696E00566D696E00566D617820450025
:102CD000566D6178204500566D6178204500566D2F
:102CE0006178205A00566D6178205A00566D6178DF
:102CF000205A00566D6178205900566D6178205930
:102D000000566D6178205900566D61782058005644
:102D10006D6178205800566D61782058004D6F74B1
:102D2000696F6E00416D6178204500416D617820CA
:102D30004500416D6178205A00416D6178205A004C
:102D4000416D6178205900416D6178205900416DD5
:102D50006178205800416D6178205800412D7472CF
:102D60006176656C00412D74726176656C00412D51
:102D70007265747261637400412D7265747261636F
:102D80007400416363656C00416363656C004D6F63
:102D900074696F6E0056652D6A65726B0056652DFD
:102DA0006A65726B0056652D6A65726B00567A2DE6
:102DB0006A65726B00567A2D6A65726B0056792DC2
:102DC0006A65726B0056792D6A65726B0056792DB3
:102DD0006A65726B0056782D6A65726B0056782DA5
:102DE0006A65726B0056782D6A65726B004D6F7460
:102DF000696F6E004573746570732F6D6D00457358
:102E0000746570732F6D6D005A73746570732F6DD8
:102E10006D005A73746570732F6D6D00597374650E
:102E200070732F6D6D005973746570732F6D6D0025
:102E30005873746570732F6D6D005873746570737B
:102E40002F6D6D004D6F74696F6E005374657073F4
:102E50002F6D6D004A65726B00416363656C65722E
:102E60006174696F6E0056656C6F636974790043B5
:102E70006F6E74726F6C0047322F4733206261644B
:102E800020706172616D65746572730A00206E6FE7
:102E90007420656E74657265642E0A004E6F206D35
:102EA0006F76652E005072696E742074696D653A94
:102EB00020006F6B0020573A004520436F6F6C690C
:102EC0006E672E2E2E00452048656174696E672E50
:102ED0002E2E004D31343520533C696E6465783EAA
:102EE000206F7574206F662072616E6765202830D0
:102EF0002D31290A0053696C656E744352204F6668
:102F0000662E00203D20307800447269766572207C
:102F10007265676973746572733A006F7409006F44
:102F20007470770900733267610900733267620950
:102F3000006F6C6109006F6C62090073747374092F
:102F4000006673616374697665090073675F726513
:102F500073756C7409007374616C6C67756172646D
:102F60000900445256535441545553005374616CF4
:102F70006C67756172642074687273002D7374617C
:102F800072740900687973746572657369730A2DC8
:102F9000656E640900626C616E6B2074696D65001A
:102FA0006F66662074696D6509004F542070726504
:102FB0007761726E206861730A6265656E20747253
:102FC00069676765726564004F5420707265776148
:102FD000726E005B6D6D2F735D090070776D0A7402
:102FE00068726573686F6C64090074737465700946
:102FF000006D73746570730900737465616C746837
:1030000043686F70007673656E7365090050574DA5
:10301000207363616C650043532061637475616C58
:103020000900486F6C642063757272656E7400529B
:10303000756E2063757272656E74004D4158206321
:10304000757272656E7400524D53206375727265AD
:103050006E74005365742063757272656E740045FA
:103060006E61626C6564090009007C2000207C3080
:1030700062003A002063757272656E742064656345
:1030800072656173656420746F20006D41290A00C8
:1030900020647269766572206F76657274656D70F2
:1030A00065726174757265207761726E696E6721F1
:1030B0002028003A20004472697665722065727299
:1030C0006F720073686F727420746F2067726F750F
:1030D0006E642028636F696C2042290A0073686F50
:1030E000727420746F2067726F756E642028636F2E
:1030F000696C2041290A006F76657274656D706590
:103100007261747572650A00206472697665722056
:103110006572726F722064657465637465643A0ADF
:1031200000B80B0000B80B0000640000001027007E
:10313000000000FA430000FA430000A0400000C86D
:10314000410000A0420000A0420000C8430000BEB1
:103150004220204D393036200020204D3931332097
:10316000000A4D6561737572656420706F696E74D5
:10317000733A0A005A206F66667365743A20004EEF
:10318000756D20582C593A20332C330A00FFFDFC72
:10319000FAF8F6F4F2F0EEECEAE9E7E5E3E1E0DE76
:1031A000DCDAD9D7D5D4D2D0CFCDCBCAC8C7C5C326
:1031B000C2C0BFBDBCBAB9B7B6B4B3B2B0AFADACA4
:1031C000AAA9A8A6A5A4A2A1A09E9D9C9A999897F9
:1031D00095949392908F8E8D8B8A8988878684832D
:1031E0008281807F7E7D7B7A797877767574737241
:1031F00071706F6E6D6C6B6A696867666564636237
:1032000061605F5E5D5C5B5A595858575655545320
:10321000525150504F4E4D4C4B4A4A4948474646F2
:10322000454443424241403F3E3E3D3C3B3B3A39B0
:10323000383837363535343332323130302F2E2E60
:103240002D2C2B2B2A292928272726252524232303
:1032500022212120201F1E1E1D1C1C1B1B1A191998
:103260001818171616151514131312121111100F22
:103270000F0E0E0D0D0C0C0B0A0A090908080707A2
:103280000606050504040303020201000000000015
:10329000010000000100008000555555000000406D
:1032A0000033333300AAAA2A0049922400000020E8
:1032B00000C7711C0099991900D145170055551583
:1032C000003BB1130024491200111111000000103D
:1032D000000F0F0F00E3380E0043790D00CCCC0C2B
:1032E00000C3300C00E8A20B0064210B00AAAA0A5C
:1032F00000703D0A009DD80900427B090092240914
:1033000000DCD3080088880800104208000000088C
:1033100000F0C107008787070075500700711C0780
:10332000003EEB0600A1BC0600699006006666063A
:1033300000703E06006118060017F4050074D10500
:10334000005BB00500B2900500627205005555059E
:103350000078390500B81E0500050505004EEC048F
:103360000087D40400A1BD040090A7040049920482
:1033700000C17D0400EE690400C756040044440403
:10338000005C320400082104004110040000000425
:10339000003FF00300F8E0030026D20300C3C3039C
:1033A00000CCB503003AA803000A9B0300388E0343
:1033B00000C08103009F750300D0690300505E03C5
:1033C000001D53030034480300913D0300333303D1
:1033D0000016290300381F030097150300300C0363
:1033E00000030303000BFA020049F10200BAE802ED
:1033F000005CE002002DD802002DD0020059C80266
:1034000000B0C0020031B90200DAB10200AAAA027B
:1034100000A0A30200BC9C0200FA9502005C8F028F
:1034200000DF88020082820200457C0200277602CB
:103430000027700200436A02007C640200D05E0232
:10344000003F590200C85302006F6B0020746F6F79
:10345000206C6F6E6720657874727573696F6E206B
:1034600070726576656E7465640A0020636F6C64C3
:1034700020657874727573696F6E207072657665F9
:103480006E7465640A00627573793A2070617573B1
:10349000656420666F7220696E7075740A006275CB
:1034A00073793A2070617573656420666F72207558
:1034B0007365720A00627573793A2070726F636582
:1034C0007373696E670A004B494C4C45442E2000CB
:1034D0004B494C4C20636175736564206279204BC5
:1034E000494C4C20627574746F6E2F70696E0A00BF
:1034F0004B494C4C45442E20004B494C4C206361B9
:103500007573656420627920746F6F206D756368D0
:1035100020696E6163746976652074696D65202D1C
:103520002063757272656E7420636F6D6D616E6479
:103530003A2000486F6D652025732573257320663A
:1035400069727374002066697273740A005A0059B4
:10355000005800486F6D6520006563686F3A000091
:103560000020002300260029002C002F003200003C
:1035700001000003010601090100002200250028C6
:10358000002B002E0031003400020100000501086C
:10359000010B0105050505070508080808020202D8
:1035A000020A0A08080404040401010101010101DE
:1035B000010303030303030303040707070C0C0CB5
:1035C0000C0C0C0C0C02020202060606060606068D
:1035D000060B0B0B0B0B0B0B0B010210202008082A
:1035E0001020401020408002010201080402010165
:1035F000020408102040808040201008040201804E
:1036000004020180402010080402010804020101A4
:1036100002040810204080010204081020408000AD
:10362000002100240027002A002D00300033000173
:10363000010000040107010A0100000A0B02090C45
:103640000D0E080703040100000000000000000048
:10365000000000000000000000000000000000006A
:103660000000000000121110000000000000000027
:1036700000000000000000000000000000000055F5
:103680006E6B6E6F776E20636F6D6D616E643A2046
:1036900022004572726F723A00747275650066613D
:1036A0006C736500747275650066616C7365007497
:1036B0007275650066616C736500313D2E313800AE
:1036C000303D2E333235002F3331002F3331002F70
:1036D000333100747275650066616C736500205A41
:1036E0003A0020593A0020436F756E7420583A0012
:1036F00020453A00205A3A0020593A00583A003AF8
:10370000004361703A00544845524D414C5F50525D
:103710004F54454354494F4E004155544F52455024
:103720004F52545F53445F53544154555300454DD9
:10373000455247454E43595F50415253455200430D
:103740004153455F4C494748545F425249474854AA
:103750004E45535300544F47474C455F4C494748EB
:10376000545300534F4654574152455F504F5745AD
:1037700052004255494C445F50455243454E540017
:103780004C4556454C494E475F44415441005A5FB1
:1037900050524F4245004155544F4C4556454C0000
:1037A0005052494E545F4A4F420050524F47524583
:1037B0005353004155544F5245504F52545F544556
:1037C0004D5000564F4C554D4554524943004545C8
:1037D00050524F4D0053455249414C5F584F4E5F38
:1037E000584F4646004649524D574152455F4E415B
:1037F0004D453A4D61726C696E20627567666978F5
:103800002D312E312E782028476974687562292061
:10381000534F555243455F434F44455F55524C3AD1
:1038200068747470733A2F2F6769746875622E63B9
:103830006F6D2F4D61726C696E4669726D77617242
:10384000652F4D61726C696E2050524F544F434F3B
:103850004C5F56455253494F4E3A312E30204D4120
:103860004348494E455F545950453A53696C656E1B
:103870007443522045585452554445525F434F5566
:103880004E543A3120555549443A63656465326176
:1038900032662D343161322D343734382D3962316E
:1038A000322D6335356336326633363766660A0045
:1038B0004D65736820706F696E742063616E6E6F02
:1038C00074206265207265736F6C7665640A004DC2
:1038D00034323120696E636F727265637420706177
:1038E00072616D657465722075736167650A005059
:1038F0006C65617365207265736574005052494E42
:103900005445522048414C544544005072696E74ED
:1039100065722068616C7465642E206B696C6C281C
:10392000292063616C6C6564210A002064726976E9
:1039300065722063757272656E743A20002073742C
:1039400065616C746843686F70206D617820737076
:103950006565643A200000000000000000000000DF
:103960000000000048420000484200008040000083
:1039700000005761726E696E673A20486F6D696E1C
:10398000672042756D702044697669736F72203CC0
:1039900020310A000202040000A0400000A0400004
:1039A0000000400000A043000096430000C843FF11
:1039B000FFFF4572726F722077726974696E6720BB
:1039C000746F20454550524F4D210A0045455052D5
:1039D0004F4D206461746173697A65206572726FFE
:1039E000722E0A004D6F76652058004D6F76652067
:1039F00059004D6F7665205A00457874727564657C
:103A000072004D6F766520302E316D6D004D6F76F2
:103A10006520316D6D004D6F76652031306D6D0024
:103A20004D6F7665206178697300457874727564AE
:103A30006572004D6F7665205A004D6F766520598E
:103A4000004D6F7665205800526573656E643A20AC
:103A5000000016F911241FBECFEFD1E2DEBFCDBFAB
:103A600000E00CBF13E0A0E0B2E0EEE3FDE002E016
:103A70000BBF02C007900D92A234B107D9F723E122
:103A8000A2E4B3E001C01D92AB31B207E1F71DE142
:103A9000CAE2DDE100E006C021970109802FFE01A6
:103AA0000F941E03C932D10780E00807A9F70E94CE
:103AB00027EF0D949D060C9400002F923F924F9299
:103AC0005F926F927F928F929F92AF92BF92CF92AE
:103AD000DF92EF92FF920F931F93CF93DF93CDB7B7
:103AE000DEB7CE55D1090FB6F894DEBF0FBECDBFFD
:103AF00091E09093A50880913A048D3409F4B9C3FC
:103B0000843511F40C94DB32873411F00C941D339E
:103B100020913804309139042B31310509F476C0F5
:103B200084F4243031054CF42230310544F537FD5E
:103B30009CC30E94D1BB0C941F332430310541F14A
:103B400094C32A32310509F467C24CF42C31310593
:103B500009F48CC02D31310509F48DC086C32B3595
:103B6000310509F4E8C22C35310509F4E8C22A35DB
:103B7000310509F07AC3109246030C941F3381E09B
:103B80002230310509F080E00E9416B60C941F33F4
:103B900080E50E94553F882329F00E94973E6B01E3
:103BA0007C0103C0C12CD12C760183E50E94553FD6
:103BB000882361F00E94DB3E20E030E04AE754E4D5
:103BC0000E94CDFE0F94AE046B017C010E941B8706
:103BD00080915D09811105C060E081E294E00E945E
:103BE0007C500E94D1EEC60ED71EE81EF91E0E9420
:103BF000D1EEDC01CB018C199D09AE09BF09B7FDDF
:103C000002C00C941F330E9465C9F1CF0E94CED32D
:103C100081110C941F3380E090E0A0E2B1E489832D
:103C20009A83AB83BC8380E090E0A1E9B3E48D8309
:103C30009E83AF83B88780E090E0A0EAB1E48987F3
:103C40009A87AB87BC8780E50E94553F882319F08F
:103C50000E94A73E01C060E06E8BBE016F5F7F4F88
:103C6000CE0146960E94E9C60C941F3380E00E9464
:103C700033B50C941F3383E50E94553F882309F127
:103C80000E94B73E863070F0ECEDF4E084918F0135
:103C90000F5F1F4F882311F40C941F330E9437408D
:103CA000F801F4CF833009F425C12CF4813069F197
:103CB0008230D9F106C0843009F47EC1853009F420
:103CC0008BC10E94E53A882399F080919F0681116B
:103CD00003C066EF72E002C062EF72E084EB94E032
:103CE0000E94F5E38AE00E9437400E94E1F690C10D
:103CF000ECEBF4E084918F010F5F1F4F882309F4F0
:103D000087C10E943740F801F5CF0E9490C71092FA
:103D100001021092000289EA94E090939A0680933F
:103D200099060E943E400C941F33809100029091AE
:103D3000010297FF0EC0E0E8F4E084918F010F5F6D
:103D40001F4F882311F40C941F330E943740F80151
:103D5000F4CF0097A1F48091550280934703198214
:103D60001A821B821C821E8A1F8A188E198EBE011F
:103D70006F5F7F4FCE0146960E942D3D07C0815058
:103D80000E9495F78091470380935502809100022D
:103D900090910102893091050CF067C01092550294
:103DA0009C012F5F3F4F309301022093000263E09C
:103DB0000F94C90280FF03C022E0291B922F40917B
:103DC000F1085091F2086091F3087091F4084E8B5D
:103DD0005F8B688F798F19821A821B821C8244E064
:103DE000840290011124B9016C51744F4B01DB0125
:103DF0002D913D914D915C91B4E09B02C001112445
:103E0000FC01E051F44F5F016081718182819381F7
:103E1000DE0111966D01E12CF12C00EA10E40E9404
:103E20004E3C19821A821B821C82B601CE01469634
:103E30000E942D3DF50180819181A281B381809303
:103E4000E9089093EA08A093EB08B093EC08F4011A
:103E500080819181A281B3818093ED089093EE08D7
:103E6000A093EF08B093F008BDC080E090E0A0EA16
:103E7000B0E48093F1089093F208A093F308B09314
:103E8000F4080E94F73B0E941B878FEF9FEF9093EF
:103E9000010280930002ECE6F4E084918F010F5F51
:103EA0001F4F882321F00E943740F801F6CF83E9A5
:103EB00092E09A83898304E610E01F8B0E8BBE018B
:103EC0006F5F7F4FCE0146960E94C6DB8AEB92E081
:103ED0009A8389831F8B0E8BBE016F5F7F4FCE014C
:103EE00046960E94C6DB81E00E9433B581E00E94C5
:103EF000153B78C088E50E94553F8823A1F00E94B9
:103F0000A73E1FEF160F1330A8F0E5E5F4E084910B
:103F10008F010F5F1F4F882311F40C941F330E94F1
:103F20003740F801F4CF88E50E9437400E9465F6DB
:103F30000C941F3389E50E94553F8823A1F00E940D
:103F4000A73E0FEF060F0330A8F0EEE3F4E08491F4
:103F50008F010F5F1F4F882311F40C941F330E94B1
:103F60003740F801F4CF89E50E9437400E9465F69A
:103F70000C941F338AE50E94553F8823B1F00E94BC
:103F8000DB3E212F30E0F901EE0FFF1FE20FF31FA0
:103F9000E00FF11DEE0FFF1FEE0FFF1FE750F74F71
:103FA000608371838283938333C08AE50E943740A4
:103FB0000E9465F60C941F338AE50E94553F8823C2
:103FC000A1F30E94DB3E6093A0087093A108809348
:103FD000A2089093A3081CC080E00E94153B0E9499
:103FE00090C716C06091000270910102693071059E
:103FF00014F00C9424338FE294E00E94DCE369E037
:1040000070E08AE294E00E94DCE38AE00E9437409C
:104010000E94D1E00C941F3380911702882311F481
:104020000C941F3389E40E94553FF82E882321F019
:104030000E94A73E062F01C000E08AE40E94553F7F
:10404000E82E882331F00E94A73E162FF11004C0FD
:104050000AC010E0FF20B1F0033010F40C94A43635
:10406000E3EFF4E003C01330D8F70CC084918F0164
:104070000F5F1F4F882311F40C941F330E943740A9
:10408000F801F4CF0E942240FF2091F024E00202C8
:10409000F0011124E051F44F80819181A281B3811C
:1040A00080933E1290933F12A0934012B09341121E
:1040B000EE2091F034E01302F0011124EC51F44FA2
:1040C00080819181A281B3818093421290934312A7
:1040D000A0934412B093451280E50E94553F882377
:1040E00019F00E94CB3E03C080E50E940E3F86E49B
:1040F0000E94553F8823D9F00E94DB3E6B017C0172
:1041000020E030E0A9010F949B05181684F420E00C
:1041100030E040E752E4C701B6010F9435046093E4
:104120003D0270933E0280933F02909340020E94B2
:1041300039CD0C941F33909346030C941F3396E5AE
:10414000292E92E0392E22E3C22E22E1D22EE12C3A
:10415000F12C00E010E0D1018D911D010E94553F2E
:10416000882309F44EC00E94DB3E2B013C01133032
:1041700059F0F701E25BFD4E20813181428153818C
:104180000F943A032B013C01F701E751F74F2081CF
:10419000318142815381C301B2010F943A034B0133
:1041A0005C012DEB37E346E855EB0F949B0587FD4B
:1041B0000AC02DEB37E346E855E3C501B4010E9480
:1041C00067FE1816F4F4133051F44092F50850923B
:1041D000F6086092F7087092F80801E012C0A50195
:1041E0009401F60160817181828193810F943B0378
:1041F000D6016D937D938D939C931397812F0E948D
:104200004C3D1F5FB4E0CB0ED11CE4E0EE0EF11C80
:10421000143009F0A0CF002309F4FACE20918807CA
:104220003091890740918A0750918B076091F5087A
:104230007091F6088091F7089091F8080E94CDFEE1
:104240000F94A8056093E00B7093E10B8093E20B51
:104250009093E30B1092D00B1092D10B1092D20BD3
:104260001092D30B0E94BD86D3CE0E94C1D50C9470
:104270001F3380913804909139048C38910509F4EA
:1042800084C40CF0B1C08836910509F48FC30CF0DA
:104290005BC08C34910509F46FC27CF582319105C5
:1042A00009F49DC484F497FF02C00C94D832823084
:1042B00091050CF495C1419711F00C94D8320E94ED
:1042C00025B50C941F338A32910509F404C244F4D5
:1042D0004F9711F00C94D8320E94E3B40C941F3322
:1042E0008934910509F434C28B34910511F00C9492
:1042F000D8320E941DE40C941F338235910509F4D5
:1043000065C47CF48E34910509F44FC20CF449C2A3
:104310008135910511F00C94D8320E94E9B10C94CA
:104320001F338435910509F45AC40CF453C4853500
:10433000910509F458C48C35910511F00C94D832CC
:104340000E94BEE10C941F338137910509F4E9C343
:1043500024F58C36910509F4DCC364F48A369105A2
:1043600009F42CC40CF02EC40E94C6B41092A50807
:104370000C94DF368E36910509F447C30CF401C462
:104380008F36910509F454C38037910511F00C94D0
:10439000D8328FEA95E00E941EEA8637910509F42B
:1043A00030C47CF48337910509F427C40CF41FC48E
:1043B0008537910511F00C94D8320E9461E00C947D
:1043C0001F338837910509F4CFC40CF467C48937CB
:1043D000910509F4D0C48A37910511F00C94D832B4
:1043E0000E9468430C941F338F32F1E09F0711F451
:1043F0000C94B32B0CF06CC08E3C910509F4F5C500
:10440000A4F5883C910509F4BCC48CF48B39910562
:1044100009F4B3C38E3B910509F4BBC381399105FF
:1044200011F00C94D8320E94FEB10C941F338B3CD7
:10443000910509F4C3C47CF4893C910511F00C94F6
:10444000D832A0E5EA2EA7E0FA2E06E512E0B4E0A5
:10445000DB2ED00E9AC48C3C910509F4CDC48D3C62
:10446000910509F441C50C94D832823E910511F4AE
:104470000C94552A94F48C3D910511F40C94D62992
:104480008D3D910511F40C94E529833D910511F0C2
:104490000C94D832E9E5F5E3AAC68C3231E09307F3
:1044A00011F40C94922A3CF48232914011F40C9451
:1044B000842A0C94D8328D3261E0960711F40C9462
:1044C000BC2A8E32914011F40C945F2B0C94D8329C
:1044D000853FA1E09A0711F40C940D31ACF58A39AF
:1044E000E1E09E0709F419C39CF4833621E09207AA
:1044F00011F40C94A72F803931E0930711F40C9438
:10450000C02F8033914011F00C94D8320C942A2F94
:10451000853A51E0950711F40C940A313CF4843A41
:10452000914011F40C94C32F0C94D8328C3AA1E032
:104530009A0709F47CC5843F914011F00C94D8325D
:104540000E94D4A30C941F338B38E3E09E0711F430
:104550000C941F33B4F4873F21E0920711F40C94BC
:10456000133114F40C941031883F41E0940711F496
:104570000C9416318A38934011F40C9419310C9430
:10458000D832803963E0960711F40C947E31DCF464
:104590008F38934011F00C94D8326091400B80E03A
:1045A0000E94C05E6091BE0A81E00E94C05E609180
:1045B0003C0A82E00E94C05E6091BA0986E00E94D7
:1045C000C05E0C941F338139B3E09B0711F40C9447
:1045D000F331873E934011F40C94C3320C94D832DB
:1045E000A0903604B090370480E50E94553F8823A0
:1045F00059F00E94973E6B017C0111E0672B682BFC
:10460000692B31F410E004C010E0C12CD12C7601EC
:1046100083E50E94553F882311F40C9428330E94AF
:10462000DB3E20E030E04AE754E40E94CDFE0F94E8
:10463000AE046B017C0111110BC0672B682B692B39
:1046400039F4A114B10421F0D5018C91811102C07B
:1046500010E001C011E00E941B87112341F08091FE
:104660002009811109C0C5010E94BE4F05C060E04C
:1046700082E195E00E947C5083E08093A50881E070
:104680008093D205C114D104E104F104E9F00E9441
:10469000D1EEC60ED71EE81EF91E0E94D1EEDC0137
:1046A000CB018C199D09AE09BF09B7FD06C00E9458
:1046B000D1871092D2050C941F338091D2058823A4
:1046C000B1F30E9465C9E9CF8091D205882379F3BF
:1046D0000E9465C9F9CF83E50E94553F882311F4F4
:1046E0000C941F330E94B73EE82E80E50E94553F90
:1046F000882339F00E94B73E182F87FF03C00C941F
:104700001F331DE0EBEDF6E08DE28E0F949119174B
:1047100029F031968E13FACF0C942D33E2E9F6E3AB
:1047200084918F010F5F1F4F882321F00E94374033
:10473000F801F6CFE5E2F5E084918F010F5F1F4F9E
:10474000882311F40C941F330E943740F801F4CFF2
:1047500080E50E940E3F882311F40C941F330E94C1
:10476000B73E853620F48093E2060C941F3384E62E
:104770008093E2060C941F338091F103813011F095
:104780000C941F3382E08093F1030E94D1EE60937A
:10479000E9037093EA038093EB039093EC030C948A
:1047A0001F330E947BE40C941F3383E50E94553F26
:1047B000811103C0E2E9F5E009C00E94A73E6E3412
:1047C0007105C1F70E94ECE40C941F3384918F01B2
:1047D0000F5F1F4F882321F00E943740F801F6CF6A
:1047E000E9E8F5E084918F010F5F1F4F882321F0E6
:1047F0000E943740F801F6CF6091F3037091F40303
:1048000080E090E04AE00E940442ECE7F5E0849109
:104810008F010F5F1F4F882321F00E943740F8015E
:10482000F6CF6091F5037091F60380E090E04AE0E6
:104830000E940442E1E7F5E084918F010F5F1F4F72
:10484000882321F00E943740F801F6CF6091F303EE
:104850007091F4038091F5039091F603681B790B36
:104860008091F103815021E030E0823010F020E0AF
:1048700030E0621B730B80E090E04AE00E9404424B
:104880008AE00E943740E9E6F5E084918F010F5FEE
:104890001F4F882321F00E943740F801F6CF809106
:1048A000F7039091F803A091F903B091FA038E8B6E
:1048B0009F8BA88FB98FBE016F5F7F4FCE01469649
:1048C0000E94623FECE5F5E084918F010F5F1F4F7E
:1048D000811105C0FE0131967F018F0104C00E9445
:1048E0003740F801F1CFD8018D918D01882319F05F
:1048F0000E943740F8CF8091FB039091FC03A09178
:10490000FD03B091FE038E8B9F8BA88FB98FBE01E4
:104910006F5F7F4FCE0146960E94623FECE4F5E068
:1049200084918F010F5F1F4F882321F00E94374031
:10493000F801F6CFF70181917F01882319F00E94D9
:104940003740F8CF8AE00E943740E4E4F5E08491F4
:104950008F010F5F1F4F882321F00E943740F8011D
:10496000F6CFE4E3F5E084918F010F5F1F4F8823BA
:1049700021F00E943740F801F6CF20E030E04AE70E
:1049800054E46091FF0370910004809101049091C0
:1049900002040F94350442E00E94CA428DE60E9450
:1049A00037408AE00E9437400C941F3388E690E03D
:1049B0000E946C4281110C941F3380913B0483FF51
:1049C00002C00C941F3383E50E94553F8823C9F031
:1049D0000E94DB3E0F94A704709337096093360959
:1049E00080E00E941C610E94DB3E20E030E04AEA49
:1049F00052E40E9467FE181624F00E947BE40E9495
:104A0000D1870E942DE50C941F338EE40E94553F00
:104A1000882311F40C941F330E94A73E60934A0927
:104A200070934B0980934C0990934D090C941F335C
:104A300083E50E940E3F882359F083E50E94553F8D
:104A4000882319F00E94B73E01C080E080933B04A8
:104A5000E9E5F5E384918F010F5F1F4F882321F073
:104A60000E943740F801F6CFE8EAF5E084918F0123
:104A70000F5F1F4F882321F00E943740F801F6CFC7
:104A800080913B048823A1F18AE9C82E85E0D82EC5
:104A9000E12CF12C20E080913B0490E00E2C02C030
:104AA000959587950A94E2F780FF17C0BB24B394CD
:104AB000B20E222319F08CE20E943740F6012591B4
:104AC0003491F901849189010F5F1F4F882321F0F0
:104AD0000E9437409801F5CF2B2DFFEFEF1AFF0A08
:104AE00032E0C30ED11C45E0E416F104A1F60CC07F
:104AF000E4EAF5E084918F010F5F1F4F882321F0D6
:104B00000E943740F801F6CF8AE00E9437400C94AB
:104B10001F33109202020C941F330E9495DF0C94F5
:104B20001F3383E50E94553F882369F00E94B73EFA
:104B30008D3320F4809341020C941F338CE38093D7
:104B400041020C941F33E9E5F5E384918F010F5F77
:104B50001F4F882321F00E943740F801F6CF409183
:104B6000410250E060E070E088EB95E00E9485E350
:104B70008AE00E9437400C941F330E9498B40C9432
:104B80001F330E948EB20C941F330E9475B20C9496
:104B90001F3380913B0483FF02C00C941F3383E5D5
:104BA0000E94553F89A781110C94483382E50E94E9
:104BB000553F81110C9448330C941F330E9472B4FA
:104BC0000C941F330E945DB40C941F331092450364
:104BD0000C941F3381E0809345030C941F330E9493
:104BE00094B10C941F330E945CE20C941F330E941A
:104BF0001B870E94D1E00C941F330E9472E00C943A
:104C00001F33009136041091370483E0D12C40E02B
:104C10008150E9F0D8019C91292F2B7F2134C1F7D5
:104C200011962C912133A1F7913421F0953421F480
:104C300041E002C0DD24D39498012E5F3F4F8901EB
:104C40002F5F3F4FF80190819032C9F3E1CF4423A9
:104C500069F0E9E5F5E384917F012FEFE21AF20AAA
:104C6000882321F00E943740F701F5CFDD2069F05D
:104C7000E1EEF5E084917F013FEFE31AF30A882328
:104C800021F00E943740F701F5CFD8018D918D01B9
:104C9000882309F439CF0E943740F7CFEDEFF5E0D4
:104CA00084918F010F5F1F4F882321F00E943740AE
:104CB000F801F6CFE5EFF5E084918F010F5F1F4F0C
:104CC000882321F00E943740F801F6CF659903C090
:104CD0000AEF12E002C00FEF12E0F80181918F019C
:104CE000882319F00E943740F8CF8AE00E943740AD
:104CF000EDEEF5E084918F010F5F1F4F882321F0C7
:104D00000E943740F801F6CF8091030181FD03C076
:104D10000AEF12E002C00FEF12E0D8018D918D0171
:104D2000882319F00E943740F8CF8AE00E9437406C
:104D3000E5EEF5E084918F010F5F1F4F882321F08E
:104D40000E943740F801F6CF4B9903C00AEF12E0FA
:104D500002C00FEF12E0F80181918F01882309F45E
:104D6000D3CE0E943740F7CF81E080930404809334
:104D700003040C941F3310920404109203040C9447
:104D80001F330E9418E00C941F33D8018D918D01C0
:104D90000E940E3F882349F00E94DB3E0F94AE0430
:104DA000F7016083718382839383F4E0EF0EF11C3B
:104DB000D012EBCF0E945DE50C941F33E0E4EE2EA1
:104DC000E7E0FE2E06E512E0F4E0DF2ED00ED8017B
:104DD0008D918D010E940E3F882339F00E94DB3EA9
:104DE000F7016083718382839383F4E0EF0EF11CFB
:104DF000D012EDCF0C941F3383E50E94553F8823DA
:104E0000A1F00E94DB3E609368077093690780936E
:104E10006A0790936B0760936007709361078093B4
:104E200062079093630710E001C011E080E50E94E3
:104E3000553F882359F00E94DB3E609368077093CA
:104E4000690780936A0790936B0710E082E50E94E0
:104E5000553F882359F00E94DB3E609364077093AE
:104E60006507809366079093670710E084E50E94CA
:104E7000553F882361F00E94DB3E6093600770938A
:104E8000610780936207909363070C941F3311238B
:104E900011F40C941F334091680750916907609199
:104EA0006A0770916B078DE196E00E94BFE3409125
:104EB00064075091650760916607709167078AE102
:104EC00096E00E94BFE340916007509161076091B6
:104ED00062077091630787E196E00E94BFE38AE072
:104EE0000E9437400C941F3383E50E940E3F8823B5
:104EF00051F00E94DB3E60933C0770933D07809326
:104F00003E0790933F0784E50E940E3F882351F0AF
:104F10000E94DB3E609338077093390780933A070D
:104F200090933B0782E40E940E3F882351F00E9439
:104F3000973E6093D4067093D5068093D6069093DF
:104F4000D70688E50E940E3F882351F00E94DB3E81
:104F500060936C0770936D0780936E0790936F0753
:104F600089E50E940E3F882351F00E94DB3E60934A
:104F700070077093710780937207909373078AE5A7
:104F80000E940E3F8823F1F00E94DB3E609374077D
:104F90007093750780937607909377072DEC3CEC20
:104FA0004CEC5DE30E9467FE181664F0EDE2F6E05B
:104FB00084918F010F5F1F4F882321F00E9437409B
:104FC000F801F6CF85E40E940E3F882311F40C947B
:104FD0001F330E94DB3E60937807709379078093BC
:104FE0007A0790937B070C941F3366E5C62E62E028
:104FF000D62E78E0E72E74E0F72E10E0D6018D91E2
:105000006D010E940E3F882351F00E94DB3EF701A4
:105010006083718382839383812F0E944C3D1F5F45
:10502000F4E0EF0EF11C133049F70C9408200E94B5
:10503000CED381110C941F3356E5852E59E3952E5E
:1050400029EE38E03D8F2C8FAE014F5F5F4F5A0144
:105050000FEA19E31A0153E0500F5E8FF4016591D6
:10506000759185919491AC8DBD8DCD90DD90ED9035
:10507000FD90BD8FAC8FA70196010F943A032B01D1
:105080003C0120E030E040EA51EC0F949B0587FDA5
:1050900010C020E030E040EA51E4C301B2010E94B8
:1050A00067FE181634F0F1014082518262827382E9
:1050B0000EC0F80184911816B4F7F7FAF094F7F8D7
:1050C000F094D101CD92DD92ED92FC921397D10133
:1050D000CD90DD90ED90FD901D0120E030E040EAA4
:1050E00051ECC701B6010F949B0587FF03C0E2E9AD
:1050F000F6E30BC020E030E040EA51E4C701B6011E
:105100000E9467FE18167CF5F2CF84918F010F5F25
:105110001F4F882321F00E943740F801F6CFEDE7BA
:10512000F6E084918F010F5F1F4F882321F00E94CA
:105130003740F801F6CF61E08FE696E00E947C50A0
:105140000E946C8D88E290E09F8B8E8B88EC90E0C3
:105150009B8F8A8FBE016A5E7F4FCE014A960E9466
:10516000C6DB0C941F33B4E08B0E911C0F5F1F4FF6
:10517000EE8DE01373CF48E0E42E44E0F42E10E00F
:10518000F50181919191A191B1915F01F701819315
:105190009193A193B1937F01812F0E944C3D1F5F9A
:1051A000133071F70E94D1E060E08FE596E00E9435
:1051B0007C5083E992E09B8F8A8F04E610E01F8B7E
:1051C0000E8BBE01665E7F4FCE0146960E94C6DB07
:1051D0008AEB92E09B8F8A8F1F8B0E8BBE01665EDF
:1051E0007F4FCE0146960E94C6DB0C941F338491FC
:1051F0008F010F5F1F4F882321F00E943740F80175
:10520000F6CF83E50E940E3F882321F00E94CB3E1B
:1052100080935502E3ECF6E084918F010F5F1F4FFE
:10522000882321F00E943740F801F6CF8091550283
:10523000811103C0EFEBF6E002C0EBEBF6E08491E6
:105240008F010F5F1F4F882321F00E943740F80124
:10525000F6CFE3EBF6E084918F010F5F1F4F8823B9
:1052600021F00E943740F801F6CF20914E12309184
:105270004F12409150125091511260915A127091F8
:105280005B1280915C1290915D120F943B03AB0115
:10529000BC0181EB96E00E94BFE320915212309155
:1052A0005312409154125091551260915E127091B8
:1052B0005F1280916012909161120F943B03AB01D9
:1052C000BC018EEA96E00E94BFE320915612309115
:1052D0005712409158125091591260916212709178
:1052E000631280916412909165120F943B03AB019D
:1052F000BC018BEA96E00E94BFE3E3EAF6E084910A
:105300008F010F5F1F4F882321F00E943740F80163
:10531000F6CF20914E1230914F1240915012509181
:1053200051126091490270914A0280914B02909112
:105330004C020F943B03AB01BC0181EA96E00E9452
:10534000BFE3209152123091531240915412509168
:10535000551260914D0270914E0280914F029091D2
:1053600050020F943B03AB01BC018EE996E00E9412
:10537000BFE320915612309157124091581250912C
:105380005912609151027091520280915302909192
:1053900054020F943B03AB01BC018BE996E00E94E1
:1053A000BFE38AE00E9437400C941F3383E50E94DC
:1053B000553F882311F40C941F330E94A73E70932D
:1053C0002202609321020C941F338DED90E00E9425
:1053D0006C4281110C941F3383E50E94553F882352
:1053E000D9F100911A0610E00E94A73E000F111F8C
:1053F000F801E15EFD4F7183608380911A0690E0B1
:105400007C01EE0CFF1CEE0CFF1C8701055E1D4F9E
:10541000880F991FFC01E15EFD4F60817181072EAD
:10542000000C880B990B0E946EFE2AE037ED43E2D8
:105430005CE30E94CDFEF701EB56F94F20813181EC
:10544000428153810E94CDFED8016D937D938D934F
:105450009C9313970C941F33E9E5F5E384918F0136
:105460000F5F1F4F882321F00E943740F801F6CFCD
:1054700085E40E94374080911A06805D0E94374083
:10548000E0911A06F0E0EE0FFF1FE15EFD4F608134
:10549000718183ED96E00E94DCE385E20E94374053
:1054A0008AE00E9437400C941F3380E50E940E3F33
:1054B000882311F40C941F330E94A73E6B017C01DA
:1054C00083E50E94553F882321F00E94A73E8B016F
:1054D00002C00FEF1FEFC8010196039710F00C9464
:1054E0001F33D7FE02C00C941F339C2DEBEDF6E06A
:1054F0008DE28E0F2491921711F40C941F33319684
:105500008E13F8CF0C94AB368AE50E94553F81117B
:105510000C94BF3483E50E94553F81110C94BF3435
:105520000C941F3383E50E94553F882319F00E9495
:10553000A73E02C064E071E07F8B6E8B80E50E9425
:10554000553F882339F00E94A73E6938B3E17B07B5
:1055500030F402C068EE73E07A83698304C088E89F
:1055600093E19A838983BE016A5E7F4FCE010196E3
:105570000E94C6DB0C941F3385E40E94553F8111C5
:1055800010C080E50E940E3F882391F00E94DB3E10
:105590006093E8057093E9058093EA059093EB0525
:1055A00007C00E94B73E882361F3E2E9F6E36FC0CB
:1055B00089E40E940E3F882381F00E94DB3E2CEAA2
:1055C00035EC47E25EE30E94CDFE6093F0057093F8
:1055D000F1058093F2059093F30584E40E940E3F59
:1055E000882381F00E94DB3E2CEA35EC47E25EE343
:1055F0000F9435046093EC057093ED058093EE05F0
:105600009093EF05E9E5F5E384918F010F5F1F4F5C
:10561000882321F00E943740F801F6CF4091E80539
:105620005091E9056091EA057091EB0580E197E002
:105630000E94BFE32CEA35EC47E25EE36091F0059F
:105640007091F1058091F2059091F3050F94350466
:10565000AB01BC018CE097E00E94A2E32CEA35ECA0
:1056600047E25EE36091EC057091ED058091EE05F7
:105670009091EF050E94CDFEAB01BC0188E097E060
:105680000E94A2E38AE00E9437400C941F33849169
:105690008F010F5F1F4F882321F00E943740F801D0
:1056A000F6CFE4E1F7E084918F010F5F1F4F88236D
:1056B00011F40C941F330E943740F801F4CF83E5B6
:1056C0000E940E3F182F882371F00E94DB3E0F943A
:1056D000A704709329026093280221E0672B09F048
:1056E00020E02093D80680E50E940E3F882359F0E1
:1056F0002091280230912902232B11F00E94CB3EE9
:105700008093D8069CC711119AC7E9E5F5E3849107
:105710008F010F5F1F4F882321F00E943740F8014F
:10572000F6CF8091D806811103C069E073E002C012
:105730006CEF72E08BE397E00E94F5E36091280242
:10574000709129028AE297E00E94DCE3E6E2F7E04A
:1057500084918F010F5F1F4F882309F470C70E9447
:105760003740F801F5CF85E40E94553F882321F0AA
:105770000E94A73E7B0102C0E12CF12C83E40E9431
:10578000553F882331F00E94A73E21966FAF2197A5
:1057900004C045E021964FAF219785E50E94553F13
:1057A000882319F00E94CB3E03C085E50E940E3F7E
:1057B0002D968FAF2D97F7FC07C0812C912C06E119
:1057C000A02E03E4B02E06C0812C912C1CE8A12E43
:1057D00012E4B12E83E50E94553F882321F00E94F8
:1057E000DB3E4B015C01E114F10411F410921A0646
:1057F000EC8E0E94D1EE2B013C015C8D57FD03C065
:1058000004E110E002C00CE310E061E06E0D6230D4
:1058100068F0E7EEF8E084918F010F5F1F4F882357
:1058200009F40DC70E943740F801F5CFE1E1F9E036
:1058300084917F016FEFE61AF60A882321F00E9417
:105840003740F701F5CF0E9467617C8D77FF04C078
:105850008FE78093190608C08C8DE82F880FFF0B07
:10586000E85EF94F8FE78083C501B4010F94A70468
:10587000072E000C880B990B0E946EFE6EA37FA36F
:1058800088A799A79801A8EEB3E00F94BA02619691
:105890006CAF7DAF8EAF9FAF6197640D751D861D98
:1058A000971D6D966CAF7DAF8EAF9FAF6D9781E00A
:1058B0008093020228964CAE5DAE6EAE7FAE289706
:1058C00065964CAE5DAE6EAE7FAE659724961FAE0C
:1058D000249769961CAE1DAE1EAE1FAE69971EAA18
:1058E00090E49FABACE1A8AFB6E4B9AF1AAE1BAE83
:1058F0001CAE1DAE1AAA1BAA1CAA1DAA1EA61FA674
:1059000018AA19AAC12CD12C7601AFE78A2E912CA6
:10591000A12CB12C2FE730E040E050E02AA33BA3BC
:105920004CA35DA32C961CAE1DAE1EAE1FAE2C97D5
:1059300031E023963FAF23971BA61AA610E0212C37
:10594000312C00E04C8D842F440F990BBC01685E14
:10595000794F6F967FAF6EAF6F97880F991F880F43
:10596000991FDC01AD51B94FBFAFAEAF2196EFAD7E
:1059700021970E2E000CFF0B2296FFAFEEAF229761
:1059800080910202882309F4D0C00E94D1EE6E8F6C
:105990007F8F88A399A380911706882309F4A9C053
:1059A0000E942A62FC8DF7FF09C01091E706209043
:1059B000E8063090E9060091EA060BC0AEADBFAD37
:1059C0001C9111962C90119712963C901297139659
:1059D0000C91212F322D432D502F6AAD7BAD8CAD14
:1059E0009DAD0E9467FE87FF04C01AAF2BAE3CAE90
:1059F0000DAF212F322D432D502F6EA97FA988ADD9
:105A000099AD0F949B05181624F41EAB2FAA38AE3F
:105A100009AF2396BFAD23972EA13FA148A559A555
:105A2000612F722D832D902FBB2309F448C00F9452
:105A30009B0518160CF05DC04E8D5F8D68A179A195
:105A40004419550966097709DB01CA018858934151
:105A5000A109B109B7FD4DC08AA19BA1ACA1BDA10F
:105A600088199909AA09BB09EC8DB595A795979551
:105A70008795E7FF03C08093190605C06F96EEADCA
:105A8000FFAD6F9780832C964CAF5DAF6EAF7FAF4D
:105A90002C97FEA1FAAF2FA12BAF38A53CAF49A59B
:105AA0004DAF6E8D7F8D88A199A128966CAF7DAF8B
:105AB0008EAF9FAF289723961FAE23971AC00E94E0
:105AC00067FE87FF16C08E8D9F8DA8A1B9A128966D
:105AD0002CAD3DAD4EAD5FAD2897821B930BA40B53
